{
	"OracleConsumer.sol": {
		"OracleConsumer": {
			"abi": [
				{
					"inputs": [
						{
							"internalType": "address",
							"name": "initialOracle",
							"type": "address"
						}
					],
					"stateMutability": "nonpayable",
					"type": "constructor"
				},
				{
					"inputs": [
						{
							"internalType": "address",
							"name": "owner",
							"type": "address"
						}
					],
					"name": "OwnableInvalidOwner",
					"type": "error"
				},
				{
					"inputs": [
						{
							"internalType": "address",
							"name": "account",
							"type": "address"
						}
					],
					"name": "OwnableUnauthorizedAccount",
					"type": "error"
				},
				{
					"anonymous": false,
					"inputs": [
						{
							"indexed": true,
							"internalType": "address",
							"name": "wallet",
							"type": "address"
						},
						{
							"indexed": false,
							"internalType": "bytes32",
							"name": "identityHash",
							"type": "bytes32"
						},
						{
							"indexed": false,
							"internalType": "uint32",
							"name": "maxTickets",
							"type": "uint32"
						},
						{
							"indexed": false,
							"internalType": "bool",
							"name": "blocked",
							"type": "bool"
						},
						{
							"indexed": false,
							"internalType": "uint64",
							"name": "expiry",
							"type": "uint64"
						}
					],
					"name": "IdentityUpdated",
					"type": "event"
				},
				{
					"anonymous": false,
					"inputs": [
						{
							"indexed": true,
							"internalType": "address",
							"name": "oldOracle",
							"type": "address"
						},
						{
							"indexed": true,
							"internalType": "address",
							"name": "newOracle",
							"type": "address"
						}
					],
					"name": "OracleUpdated",
					"type": "event"
				},
				{
					"anonymous": false,
					"inputs": [
						{
							"indexed": true,
							"internalType": "address",
							"name": "previousOwner",
							"type": "address"
						},
						{
							"indexed": true,
							"internalType": "address",
							"name": "newOwner",
							"type": "address"
						}
					],
					"name": "OwnershipTransferred",
					"type": "event"
				},
				{
					"inputs": [
						{
							"internalType": "address",
							"name": "wallet",
							"type": "address"
						}
					],
					"name": "getIdentity",
					"outputs": [
						{
							"internalType": "bytes32",
							"name": "identityHash",
							"type": "bytes32"
						},
						{
							"internalType": "uint32",
							"name": "maxTickets",
							"type": "uint32"
						},
						{
							"internalType": "bool",
							"name": "blocked",
							"type": "bool"
						},
						{
							"internalType": "uint64",
							"name": "expiry",
							"type": "uint64"
						}
					],
					"stateMutability": "view",
					"type": "function"
				},
				{
					"inputs": [
						{
							"internalType": "address",
							"name": "wallet",
							"type": "address"
						}
					],
					"name": "isEligible",
					"outputs": [
						{
							"internalType": "bool",
							"name": "",
							"type": "bool"
						}
					],
					"stateMutability": "view",
					"type": "function"
				},
				{
					"inputs": [],
					"name": "oracle",
					"outputs": [
						{
							"internalType": "address",
							"name": "",
							"type": "address"
						}
					],
					"stateMutability": "view",
					"type": "function"
				},
				{
					"inputs": [],
					"name": "owner",
					"outputs": [
						{
							"internalType": "address",
							"name": "",
							"type": "address"
						}
					],
					"stateMutability": "view",
					"type": "function"
				},
				{
					"inputs": [],
					"name": "renounceOwnership",
					"outputs": [],
					"stateMutability": "nonpayable",
					"type": "function"
				},
				{
					"inputs": [
						{
							"internalType": "address",
							"name": "newOracle",
							"type": "address"
						}
					],
					"name": "setOracle",
					"outputs": [],
					"stateMutability": "nonpayable",
					"type": "function"
				},
				{
					"inputs": [
						{
							"internalType": "address",
							"name": "newOwner",
							"type": "address"
						}
					],
					"name": "transferOwnership",
					"outputs": [],
					"stateMutability": "nonpayable",
					"type": "function"
				},
				{
					"inputs": [
						{
							"internalType": "address",
							"name": "wallet",
							"type": "address"
						},
						{
							"internalType": "bytes32",
							"name": "identityHash",
							"type": "bytes32"
						},
						{
							"internalType": "uint32",
							"name": "maxTickets",
							"type": "uint32"
						},
						{
							"internalType": "bool",
							"name": "blocked",
							"type": "bool"
						},
						{
							"internalType": "uint64",
							"name": "expiry",
							"type": "uint64"
						}
					],
					"name": "updateIdentity",
					"outputs": [],
					"stateMutability": "nonpayable",
					"type": "function"
				}
			],
			"devdoc": {
				"errors": {
					"OwnableInvalidOwner(address)": [
						{
							"details": "The owner is not a valid owner account. (eg. `address(0)`)"
						}
					],
					"OwnableUnauthorizedAccount(address)": [
						{
							"details": "The caller account is not authorized to perform an operation."
						}
					]
				},
				"kind": "dev",
				"methods": {
					"owner()": {
						"details": "Returns the address of the current owner."
					},
					"renounceOwnership()": {
						"details": "Leaves the contract without owner. It will not be possible to call `onlyOwner` functions. Can only be called by the current owner. NOTE: Renouncing ownership will leave the contract without an owner, thereby disabling any functionality that is only available to the owner."
					},
					"transferOwnership(address)": {
						"details": "Transfers ownership of the contract to a new account (`newOwner`). Can only be called by the current owner."
					},
					"updateIdentity(address,bytes32,uint32,bool,uint64)": {
						"details": "onlyOracle: prevents users from faking verification"
					}
				},
				"version": 1
			},
			"evm": {
				"assembly": "    /* \"OracleConsumer.sol\":623:3461  contract OracleConsumer is Ownable {... */\n  mstore(0x40, 0x80)\n    /* \"OracleConsumer.sol\":1500:1727  constructor(address initialOracle) Ownable(msg.sender) {... */\n  callvalue\n  dup1\n  iszero\n  tag_1\n  jumpi\n  0x00\n  dup1\n  revert\ntag_1:\n  pop\n  mload(0x40)\n  sub(codesize, bytecodeSize)\n  dup1\n  bytecodeSize\n  dup4\n  codecopy\n  dup2\n  dup2\n  add\n  0x40\n  mstore\n  dup2\n  add\n  swap1\n  tag_2\n  swap2\n  swap1\n  tag_3\n  jump\t// in\ntag_2:\n    /* \"OracleConsumer.sol\":1543:1553  msg.sender */\n  caller\n    /* \"@openzeppelin/contracts/access/Ownable.sol\":1297:1298  0 */\n  0x00\n    /* \"@openzeppelin/contracts/access/Ownable.sol\":1273:1299  initialOwner == address(0) */\n  0xffffffffffffffffffffffffffffffffffffffff\n  and\n    /* \"@openzeppelin/contracts/access/Ownable.sol\":1273:1285  initialOwner */\n  dup2\n    /* \"@openzeppelin/contracts/access/Ownable.sol\":1273:1299  initialOwner == address(0) */\n  0xffffffffffffffffffffffffffffffffffffffff\n  and\n  sub\n    /* \"@openzeppelin/contracts/access/Ownable.sol\":1269:1364  if (initialOwner == address(0)) {... */\n  tag_7\n  jumpi\n    /* \"@openzeppelin/contracts/access/Ownable.sol\":1350:1351  0 */\n  0x00\n    /* \"@openzeppelin/contracts/access/Ownable.sol\":1322:1353  OwnableInvalidOwner(address(0)) */\n  mload(0x40)\n  0x1e4fbdf700000000000000000000000000000000000000000000000000000000\n  dup2\n  mstore\n  0x04\n  add\n  tag_8\n  swap2\n  swap1\n  tag_9\n  jump\t// in\ntag_8:\n  mload(0x40)\n  dup1\n  swap2\n  sub\n  swap1\n  revert\n    /* \"@openzeppelin/contracts/access/Ownable.sol\":1269:1364  if (initialOwner == address(0)) {... */\ntag_7:\n    /* \"@openzeppelin/contracts/access/Ownable.sol\":1373:1405  _transferOwnership(initialOwner) */\n  tag_10\n    /* \"@openzeppelin/contracts/access/Ownable.sol\":1392:1404  initialOwner */\n  dup2\n    /* \"@openzeppelin/contracts/access/Ownable.sol\":1373:1391  _transferOwnership */\n  shl(0x20, tag_11)\n    /* \"@openzeppelin/contracts/access/Ownable.sol\":1373:1405  _transferOwnership(initialOwner) */\n  0x20\n  shr\n  jump\t// in\ntag_10:\n    /* \"@openzeppelin/contracts/access/Ownable.sol\":1225:1412  constructor(address initialOwner) {... */\n  pop\n    /* \"OracleConsumer.sol\":1599:1600  0 */\n  0x00\n    /* \"OracleConsumer.sol\":1574:1601  initialOracle != address(0) */\n  0xffffffffffffffffffffffffffffffffffffffff\n  and\n    /* \"OracleConsumer.sol\":1574:1587  initialOracle */\n  dup2\n    /* \"OracleConsumer.sol\":1574:1601  initialOracle != address(0) */\n  0xffffffffffffffffffffffffffffffffffffffff\n  and\n  sub\n    /* \"OracleConsumer.sol\":1566:1630  require(initialOracle != address(0), \"OracleConsumer: oracle=0\") */\n  tag_13\n  jumpi\n  mload(0x40)\n  0x08c379a000000000000000000000000000000000000000000000000000000000\n  dup2\n  mstore\n  0x04\n  add\n  tag_14\n  swap1\n  tag_15\n  jump\t// in\ntag_14:\n  mload(0x40)\n  dup1\n  swap2\n  sub\n  swap1\n  revert\ntag_13:\n    /* \"OracleConsumer.sol\":1650:1663  initialOracle */\n  dup1\n    /* \"OracleConsumer.sol\":1641:1647  oracle */\n  0x01\n  0x00\n    /* \"OracleConsumer.sol\":1641:1663  oracle = initialOracle */\n  0x0100\n  exp\n  dup2\n  sload\n  dup2\n  0xffffffffffffffffffffffffffffffffffffffff\n  mul\n  not\n  and\n  swap1\n  dup4\n  0xffffffffffffffffffffffffffffffffffffffff\n  and\n  mul\n  or\n  swap1\n  sstore\n  pop\n    /* \"OracleConsumer.sol\":1705:1718  initialOracle */\n  dup1\n    /* \"OracleConsumer.sol\":1679:1719  OracleUpdated(address(0), initialOracle) */\n  0xffffffffffffffffffffffffffffffffffffffff\n  and\n    /* \"OracleConsumer.sol\":1701:1702  0 */\n  0x00\n    /* \"OracleConsumer.sol\":1679:1719  OracleUpdated(address(0), initialOracle) */\n  0xffffffffffffffffffffffffffffffffffffffff\n  and\n  0x078c3b417dadf69374a59793b829c52001247130433427049317bde56607b1b7\n  mload(0x40)\n  mload(0x40)\n  dup1\n  swap2\n  sub\n  swap1\n  log3\n    /* \"OracleConsumer.sol\":1500:1727  constructor(address initialOracle) Ownable(msg.sender) {... */\n  pop\n    /* \"OracleConsumer.sol\":623:3461  contract OracleConsumer is Ownable {... */\n  jump(tag_16)\n    /* \"@openzeppelin/contracts/access/Ownable.sol\":2912:3099  function _transferOwnership(address newOwner) internal virtual {... */\ntag_11:\n    /* \"@openzeppelin/contracts/access/Ownable.sol\":2985:3001  address oldOwner */\n  0x00\n    /* \"@openzeppelin/contracts/access/Ownable.sol\":3004:3010  _owner */\n  dup1\n  0x00\n  swap1\n  sload\n  swap1\n  0x0100\n  exp\n  swap1\n  div\n  0xffffffffffffffffffffffffffffffffffffffff\n  and\n    /* \"@openzeppelin/contracts/access/Ownable.sol\":2985:3010  address oldOwner = _owner */\n  swap1\n  pop\n    /* \"@openzeppelin/contracts/access/Ownable.sol\":3029:3037  newOwner */\n  dup2\n    /* \"@openzeppelin/contracts/access/Ownable.sol\":3020:3026  _owner */\n  0x00\n  dup1\n    /* \"@openzeppelin/contracts/access/Ownable.sol\":3020:3037  _owner = newOwner */\n  0x0100\n  exp\n  dup2\n  sload\n  dup2\n  0xffffffffffffffffffffffffffffffffffffffff\n  mul\n  not\n  and\n  swap1\n  dup4\n  0xffffffffffffffffffffffffffffffffffffffff\n  and\n  mul\n  or\n  swap1\n  sstore\n  pop\n    /* \"@openzeppelin/contracts/access/Ownable.sol\":3083:3091  newOwner */\n  dup2\n    /* \"@openzeppelin/contracts/access/Ownable.sol\":3052:3092  OwnershipTransferred(oldOwner, newOwner) */\n  0xffffffffffffffffffffffffffffffffffffffff\n  and\n    /* \"@openzeppelin/contracts/access/Ownable.sol\":3073:3081  oldOwner */\n  dup2\n    /* \"@openzeppelin/contracts/access/Ownable.sol\":3052:3092  OwnershipTransferred(oldOwner, newOwner) */\n  0xffffffffffffffffffffffffffffffffffffffff\n  and\n  0x8be0079c531659141344cd1fd0a4f28419497f9722a3daafe3b4186f6b6457e0\n  mload(0x40)\n  mload(0x40)\n  dup1\n  swap2\n  sub\n  swap1\n  log3\n    /* \"@openzeppelin/contracts/access/Ownable.sol\":2975:3099  {... */\n  pop\n    /* \"@openzeppelin/contracts/access/Ownable.sol\":2912:3099  function _transferOwnership(address newOwner) internal virtual {... */\n  pop\n  jump\t// out\n    /* \"#utility.yul\":88:205   */\ntag_19:\n    /* \"#utility.yul\":197:198   */\n  0x00\n    /* \"#utility.yul\":194:195   */\n  dup1\n    /* \"#utility.yul\":187:199   */\n  revert\n    /* \"#utility.yul\":334:460   */\ntag_21:\n    /* \"#utility.yul\":371:378   */\n  0x00\n    /* \"#utility.yul\":411:453   */\n  0xffffffffffffffffffffffffffffffffffffffff\n    /* \"#utility.yul\":404:409   */\n  dup3\n    /* \"#utility.yul\":400:454   */\n  and\n    /* \"#utility.yul\":389:454   */\n  swap1\n  pop\n    /* \"#utility.yul\":334:460   */\n  swap2\n  swap1\n  pop\n  jump\t// out\n    /* \"#utility.yul\":466:562   */\ntag_22:\n    /* \"#utility.yul\":503:510   */\n  0x00\n    /* \"#utility.yul\":532:556   */\n  tag_35\n    /* \"#utility.yul\":550:555   */\n  dup3\n    /* \"#utility.yul\":532:556   */\n  tag_21\n  jump\t// in\ntag_35:\n    /* \"#utility.yul\":521:556   */\n  swap1\n  pop\n    /* \"#utility.yul\":466:562   */\n  swap2\n  swap1\n  pop\n  jump\t// out\n    /* \"#utility.yul\":568:690   */\ntag_23:\n    /* \"#utility.yul\":641:665   */\n  tag_37\n    /* \"#utility.yul\":659:664   */\n  dup2\n    /* \"#utility.yul\":641:665   */\n  tag_22\n  jump\t// in\ntag_37:\n    /* \"#utility.yul\":634:639   */\n  dup2\n    /* \"#utility.yul\":631:666   */\n  eq\n    /* \"#utility.yul\":621:684   */\n  tag_38\n  jumpi\n    /* \"#utility.yul\":680:681   */\n  0x00\n    /* \"#utility.yul\":677:678   */\n  dup1\n    /* \"#utility.yul\":670:682   */\n  revert\n    /* \"#utility.yul\":621:684   */\ntag_38:\n    /* \"#utility.yul\":568:690   */\n  pop\n  jump\t// out\n    /* \"#utility.yul\":696:839   */\ntag_24:\n    /* \"#utility.yul\":753:758   */\n  0x00\n    /* \"#utility.yul\":784:790   */\n  dup2\n    /* \"#utility.yul\":778:791   */\n  mload\n    /* \"#utility.yul\":769:791   */\n  swap1\n  pop\n    /* \"#utility.yul\":800:833   */\n  tag_40\n    /* \"#utility.yul\":827:832   */\n  dup2\n    /* \"#utility.yul\":800:833   */\n  tag_23\n  jump\t// in\ntag_40:\n    /* \"#utility.yul\":696:839   */\n  swap3\n  swap2\n  pop\n  pop\n  jump\t// out\n    /* \"#utility.yul\":845:1196   */\ntag_3:\n    /* \"#utility.yul\":915:921   */\n  0x00\n    /* \"#utility.yul\":964:966   */\n  0x20\n    /* \"#utility.yul\":952:961   */\n  dup3\n    /* \"#utility.yul\":943:950   */\n  dup5\n    /* \"#utility.yul\":939:962   */\n  sub\n    /* \"#utility.yul\":935:967   */\n  slt\n    /* \"#utility.yul\":932:1051   */\n  iszero\n  tag_42\n  jumpi\n    /* \"#utility.yul\":970:1049   */\n  tag_43\n  tag_19\n  jump\t// in\ntag_43:\n    /* \"#utility.yul\":932:1051   */\ntag_42:\n    /* \"#utility.yul\":1090:1091   */\n  0x00\n    /* \"#utility.yul\":1115:1179   */\n  tag_44\n    /* \"#utility.yul\":1171:1178   */\n  dup5\n    /* \"#utility.yul\":1162:1168   */\n  dup3\n    /* \"#utility.yul\":1151:1160   */\n  dup6\n    /* \"#utility.yul\":1147:1169   */\n  add\n    /* \"#utility.yul\":1115:1179   */\n  tag_24\n  jump\t// in\ntag_44:\n    /* \"#utility.yul\":1105:1179   */\n  swap2\n  pop\n    /* \"#utility.yul\":1061:1189   */\n  pop\n    /* \"#utility.yul\":845:1196   */\n  swap3\n  swap2\n  pop\n  pop\n  jump\t// out\n    /* \"#utility.yul\":1202:1320   */\ntag_25:\n    /* \"#utility.yul\":1289:1313   */\n  tag_46\n    /* \"#utility.yul\":1307:1312   */\n  dup2\n    /* \"#utility.yul\":1289:1313   */\n  tag_22\n  jump\t// in\ntag_46:\n    /* \"#utility.yul\":1284:1287   */\n  dup3\n    /* \"#utility.yul\":1277:1314   */\n  mstore\n    /* \"#utility.yul\":1202:1320   */\n  pop\n  pop\n  jump\t// out\n    /* \"#utility.yul\":1326:1548   */\ntag_9:\n    /* \"#utility.yul\":1419:1423   */\n  0x00\n    /* \"#utility.yul\":1457:1459   */\n  0x20\n    /* \"#utility.yul\":1446:1455   */\n  dup3\n    /* \"#utility.yul\":1442:1460   */\n  add\n    /* \"#utility.yul\":1434:1460   */\n  swap1\n  pop\n    /* \"#utility.yul\":1470:1541   */\n  tag_48\n    /* \"#utility.yul\":1538:1539   */\n  0x00\n    /* \"#utility.yul\":1527:1536   */\n  dup4\n    /* \"#utility.yul\":1523:1540   */\n  add\n    /* \"#utility.yul\":1514:1520   */\n  dup5\n    /* \"#utility.yul\":1470:1541   */\n  tag_25\n  jump\t// in\ntag_48:\n    /* \"#utility.yul\":1326:1548   */\n  swap3\n  swap2\n  pop\n  pop\n  jump\t// out\n    /* \"#utility.yul\":1554:1723   */\ntag_26:\n    /* \"#utility.yul\":1638:1649   */\n  0x00\n    /* \"#utility.yul\":1672:1678   */\n  dup3\n    /* \"#utility.yul\":1667:1670   */\n  dup3\n    /* \"#utility.yul\":1660:1679   */\n  mstore\n    /* \"#utility.yul\":1712:1716   */\n  0x20\n    /* \"#utility.yul\":1707:1710   */\n  dup3\n    /* \"#utility.yul\":1703:1717   */\n  add\n    /* \"#utility.yul\":1688:1717   */\n  swap1\n  pop\n    /* \"#utility.yul\":1554:1723   */\n  swap3\n  swap2\n  pop\n  pop\n  jump\t// out\n    /* \"#utility.yul\":1729:1903   */\ntag_27:\n    /* \"#utility.yul\":1869:1895   */\n  0x4f7261636c65436f6e73756d65723a206f7261636c653d300000000000000000\n    /* \"#utility.yul\":1865:1866   */\n  0x00\n    /* \"#utility.yul\":1857:1863   */\n  dup3\n    /* \"#utility.yul\":1853:1867   */\n  add\n    /* \"#utility.yul\":1846:1896   */\n  mstore\n    /* \"#utility.yul\":1729:1903   */\n  pop\n  jump\t// out\n    /* \"#utility.yul\":1909:2275   */\ntag_28:\n    /* \"#utility.yul\":2051:2054   */\n  0x00\n    /* \"#utility.yul\":2072:2139   */\n  tag_52\n    /* \"#utility.yul\":2136:2138   */\n  0x18\n    /* \"#utility.yul\":2131:2134   */\n  dup4\n    /* \"#utility.yul\":2072:2139   */\n  tag_26\n  jump\t// in\ntag_52:\n    /* \"#utility.yul\":2065:2139   */\n  swap2\n  pop\n    /* \"#utility.yul\":2148:2241   */\n  tag_53\n    /* \"#utility.yul\":2237:2240   */\n  dup3\n    /* \"#utility.yul\":2148:2241   */\n  tag_27\n  jump\t// in\ntag_53:\n    /* \"#utility.yul\":2266:2268   */\n  0x20\n    /* \"#utility.yul\":2261:2264   */\n  dup3\n    /* \"#utility.yul\":2257:2269   */\n  add\n    /* \"#utility.yul\":2250:2269   */\n  swap1\n  pop\n    /* \"#utility.yul\":1909:2275   */\n  swap2\n  swap1\n  pop\n  jump\t// out\n    /* \"#utility.yul\":2281:2700   */\ntag_15:\n    /* \"#utility.yul\":2447:2451   */\n  0x00\n    /* \"#utility.yul\":2485:2487   */\n  0x20\n    /* \"#utility.yul\":2474:2483   */\n  dup3\n    /* \"#utility.yul\":2470:2488   */\n  add\n    /* \"#utility.yul\":2462:2488   */\n  swap1\n  pop\n    /* \"#utility.yul\":2534:2543   */\n  dup2\n    /* \"#utility.yul\":2528:2532   */\n  dup2\n    /* \"#utility.yul\":2524:2544   */\n  sub\n    /* \"#utility.yul\":2520:2521   */\n  0x00\n    /* \"#utility.yul\":2509:2518   */\n  dup4\n    /* \"#utility.yul\":2505:2522   */\n  add\n    /* \"#utility.yul\":2498:2545   */\n  mstore\n    /* \"#utility.yul\":2562:2693   */\n  tag_55\n    /* \"#utility.yul\":2688:2692   */\n  dup2\n    /* \"#utility.yul\":2562:2693   */\n  tag_28\n  jump\t// in\ntag_55:\n    /* \"#utility.yul\":2554:2693   */\n  swap1\n  pop\n    /* \"#utility.yul\":2281:2700   */\n  swap2\n  swap1\n  pop\n  jump\t// out\n    /* \"OracleConsumer.sol\":623:3461  contract OracleConsumer is Ownable {... */\ntag_16:\n  dataSize(sub_0)\n  dup1\n  dataOffset(sub_0)\n  0x00\n  codecopy\n  0x00\n  return\nstop\n\nsub_0: assembly {\n        /* \"OracleConsumer.sol\":623:3461  contract OracleConsumer is Ownable {... */\n      mstore(0x40, 0x80)\n      callvalue\n      dup1\n      iszero\n      tag_1\n      jumpi\n      0x00\n      dup1\n      revert\n    tag_1:\n      pop\n      jumpi(tag_2, lt(calldatasize, 0x04))\n      shr(0xe0, calldataload(0x00))\n      dup1\n      0x7adbf973\n      gt\n      tag_11\n      jumpi\n      dup1\n      0x7adbf973\n      eq\n      tag_7\n      jumpi\n      dup1\n      0x7dc0d1d0\n      eq\n      tag_8\n      jumpi\n      dup1\n      0x8da5cb5b\n      eq\n      tag_9\n      jumpi\n      dup1\n      0xf2fde38b\n      eq\n      tag_10\n      jumpi\n      jump(tag_2)\n    tag_11:\n      dup1\n      0x2fea7b81\n      eq\n      tag_3\n      jumpi\n      dup1\n      0x66e305fd\n      eq\n      tag_4\n      jumpi\n      dup1\n      0x715018a6\n      eq\n      tag_5\n      jumpi\n      dup1\n      0x7966e915\n      eq\n      tag_6\n      jumpi\n    tag_2:\n      0x00\n      dup1\n      revert\n        /* \"OracleConsumer.sol\":2758:3053  function getIdentity(address wallet)... */\n    tag_3:\n      tag_12\n      0x04\n      dup1\n      calldatasize\n      sub\n      dup2\n      add\n      swap1\n      tag_13\n      swap2\n      swap1\n      tag_14\n      jump\t// in\n    tag_13:\n      tag_15\n      jump\t// in\n    tag_12:\n      mload(0x40)\n      tag_16\n      swap5\n      swap4\n      swap3\n      swap2\n      swap1\n      tag_17\n      jump\t// in\n    tag_16:\n      mload(0x40)\n      dup1\n      swap2\n      sub\n      swap1\n      return\n        /* \"OracleConsumer.sol\":3140:3458  function isEligible(address wallet) external view returns (bool) {... */\n    tag_4:\n      tag_18\n      0x04\n      dup1\n      calldatasize\n      sub\n      dup2\n      add\n      swap1\n      tag_19\n      swap2\n      swap1\n      tag_14\n      jump\t// in\n    tag_19:\n      tag_20\n      jump\t// in\n    tag_18:\n      mload(0x40)\n      tag_21\n      swap2\n      swap1\n      tag_22\n      jump\t// in\n    tag_21:\n      mload(0x40)\n      dup1\n      swap2\n      sub\n      swap1\n      return\n        /* \"@openzeppelin/contracts/access/Ownable.sol\":2293:2394  function renounceOwnership() public virtual onlyOwner {... */\n    tag_5:\n      tag_23\n      tag_24\n      jump\t// in\n    tag_23:\n      stop\n        /* \"OracleConsumer.sol\":2187:2693  function updateIdentity(... */\n    tag_6:\n      tag_25\n      0x04\n      dup1\n      calldatasize\n      sub\n      dup2\n      add\n      swap1\n      tag_26\n      swap2\n      swap1\n      tag_27\n      jump\t// in\n    tag_26:\n      tag_28\n      jump\t// in\n    tag_25:\n      stop\n        /* \"OracleConsumer.sol\":1790:2031  function setOracle(address newOracle) external onlyOwner {... */\n    tag_7:\n      tag_29\n      0x04\n      dup1\n      calldatasize\n      sub\n      dup2\n      add\n      swap1\n      tag_30\n      swap2\n      swap1\n      tag_14\n      jump\t// in\n    tag_30:\n      tag_31\n      jump\t// in\n    tag_29:\n      stop\n        /* \"OracleConsumer.sol\":1031:1052  address public oracle */\n    tag_8:\n      tag_32\n      tag_33\n      jump\t// in\n    tag_32:\n      mload(0x40)\n      tag_34\n      swap2\n      swap1\n      tag_35\n      jump\t// in\n    tag_34:\n      mload(0x40)\n      dup1\n      swap2\n      sub\n      swap1\n      return\n        /* \"@openzeppelin/contracts/access/Ownable.sol\":1638:1723  function owner() public view virtual returns (address) {... */\n    tag_9:\n      tag_36\n      tag_37\n      jump\t// in\n    tag_36:\n      mload(0x40)\n      tag_38\n      swap2\n      swap1\n      tag_35\n      jump\t// in\n    tag_38:\n      mload(0x40)\n      dup1\n      swap2\n      sub\n      swap1\n      return\n        /* \"@openzeppelin/contracts/access/Ownable.sol\":2543:2758  function transferOwnership(address newOwner) public virtual onlyOwner {... */\n    tag_10:\n      tag_39\n      0x04\n      dup1\n      calldatasize\n      sub\n      dup2\n      add\n      swap1\n      tag_40\n      swap2\n      swap1\n      tag_14\n      jump\t// in\n    tag_40:\n      tag_41\n      jump\t// in\n    tag_39:\n      stop\n        /* \"OracleConsumer.sol\":2758:3053  function getIdentity(address wallet)... */\n    tag_15:\n        /* \"OracleConsumer.sol\":2845:2865  bytes32 identityHash */\n      0x00\n        /* \"OracleConsumer.sol\":2867:2884  uint32 maxTickets */\n      dup1\n        /* \"OracleConsumer.sol\":2886:2898  bool blocked */\n      0x00\n        /* \"OracleConsumer.sol\":2900:2913  uint64 expiry */\n      dup1\n        /* \"OracleConsumer.sol\":2931:2954  OracleIdentity memory o */\n      0x00\n        /* \"OracleConsumer.sol\":2957:2968  _identities */\n      0x02\n        /* \"OracleConsumer.sol\":2957:2976  _identities[wallet] */\n      0x00\n        /* \"OracleConsumer.sol\":2969:2975  wallet */\n      dup8\n        /* \"OracleConsumer.sol\":2957:2976  _identities[wallet] */\n      0xffffffffffffffffffffffffffffffffffffffff\n      and\n      0xffffffffffffffffffffffffffffffffffffffff\n      and\n      dup2\n      mstore\n      0x20\n      add\n      swap1\n      dup2\n      mstore\n      0x20\n      add\n      0x00\n      keccak256\n        /* \"OracleConsumer.sol\":2931:2976  OracleIdentity memory o = _identities[wallet] */\n      mload(0x40)\n      dup1\n      0x80\n      add\n      0x40\n      mstore\n      swap1\n      dup2\n      0x00\n      dup3\n      add\n      sload\n      dup2\n      mstore\n      0x20\n      add\n      0x01\n      dup3\n      add\n      0x00\n      swap1\n      sload\n      swap1\n      0x0100\n      exp\n      swap1\n      div\n      0xffffffff\n      and\n      0xffffffff\n      and\n      0xffffffff\n      and\n      dup2\n      mstore\n      0x20\n      add\n      0x01\n      dup3\n      add\n      0x04\n      swap1\n      sload\n      swap1\n      0x0100\n      exp\n      swap1\n      div\n      0xff\n      and\n      iszero\n      iszero\n      iszero\n      iszero\n      dup2\n      mstore\n      0x20\n      add\n      0x01\n      dup3\n      add\n      0x05\n      swap1\n      sload\n      swap1\n      0x0100\n      exp\n      swap1\n      div\n      0xffffffffffffffff\n      and\n      0xffffffffffffffff\n      and\n      0xffffffffffffffff\n      and\n      dup2\n      mstore\n      pop\n      pop\n      swap1\n      pop\n        /* \"OracleConsumer.sol\":2995:2996  o */\n      dup1\n        /* \"OracleConsumer.sol\":2995:3009  o.identityHash */\n      0x00\n      add\n      mload\n        /* \"OracleConsumer.sol\":3011:3012  o */\n      dup2\n        /* \"OracleConsumer.sol\":3011:3023  o.maxTickets */\n      0x20\n      add\n      mload\n        /* \"OracleConsumer.sol\":3025:3026  o */\n      dup3\n        /* \"OracleConsumer.sol\":3025:3034  o.blocked */\n      0x40\n      add\n      mload\n        /* \"OracleConsumer.sol\":3036:3037  o */\n      dup4\n        /* \"OracleConsumer.sol\":3036:3044  o.expiry */\n      0x60\n      add\n      mload\n        /* \"OracleConsumer.sol\":2987:3045  return (o.identityHash, o.maxTickets, o.blocked, o.expiry) */\n      swap5\n      pop\n      swap5\n      pop\n      swap5\n      pop\n      swap5\n      pop\n      pop\n        /* \"OracleConsumer.sol\":2758:3053  function getIdentity(address wallet)... */\n      swap2\n      swap4\n      pop\n      swap2\n      swap4\n      jump\t// out\n        /* \"OracleConsumer.sol\":3140:3458  function isEligible(address wallet) external view returns (bool) {... */\n    tag_20:\n        /* \"OracleConsumer.sol\":3199:3203  bool */\n      0x00\n        /* \"OracleConsumer.sol\":3216:3239  OracleIdentity memory o */\n      dup1\n        /* \"OracleConsumer.sol\":3242:3253  _identities */\n      0x02\n        /* \"OracleConsumer.sol\":3242:3261  _identities[wallet] */\n      0x00\n        /* \"OracleConsumer.sol\":3254:3260  wallet */\n      dup5\n        /* \"OracleConsumer.sol\":3242:3261  _identities[wallet] */\n      0xffffffffffffffffffffffffffffffffffffffff\n      and\n      0xffffffffffffffffffffffffffffffffffffffff\n      and\n      dup2\n      mstore\n      0x20\n      add\n      swap1\n      dup2\n      mstore\n      0x20\n      add\n      0x00\n      keccak256\n        /* \"OracleConsumer.sol\":3216:3261  OracleIdentity memory o = _identities[wallet] */\n      mload(0x40)\n      dup1\n      0x80\n      add\n      0x40\n      mstore\n      swap1\n      dup2\n      0x00\n      dup3\n      add\n      sload\n      dup2\n      mstore\n      0x20\n      add\n      0x01\n      dup3\n      add\n      0x00\n      swap1\n      sload\n      swap1\n      0x0100\n      exp\n      swap1\n      div\n      0xffffffff\n      and\n      0xffffffff\n      and\n      0xffffffff\n      and\n      dup2\n      mstore\n      0x20\n      add\n      0x01\n      dup3\n      add\n      0x04\n      swap1\n      sload\n      swap1\n      0x0100\n      exp\n      swap1\n      div\n      0xff\n      and\n      iszero\n      iszero\n      iszero\n      iszero\n      dup2\n      mstore\n      0x20\n      add\n      0x01\n      dup3\n      add\n      0x05\n      swap1\n      sload\n      swap1\n      0x0100\n      exp\n      swap1\n      div\n      0xffffffffffffffff\n      and\n      0xffffffffffffffff\n      and\n      0xffffffffffffffff\n      and\n      dup2\n      mstore\n      pop\n      pop\n      swap1\n      pop\n        /* \"OracleConsumer.sol\":3302:3303  0 */\n      0x00\n        /* \"OracleConsumer.sol\":3294:3304  bytes32(0) */\n      dup1\n      shl\n        /* \"OracleConsumer.sol\":3276:3277  o */\n      dup2\n        /* \"OracleConsumer.sol\":3276:3290  o.identityHash */\n      0x00\n      add\n      mload\n        /* \"OracleConsumer.sol\":3276:3304  o.identityHash == bytes32(0) */\n      sub\n        /* \"OracleConsumer.sol\":3272:3318  if (o.identityHash == bytes32(0)) return false */\n      tag_44\n      jumpi\n        /* \"OracleConsumer.sol\":3313:3318  false */\n      0x00\n        /* \"OracleConsumer.sol\":3306:3318  return false */\n      swap2\n      pop\n      pop\n      jump(tag_43)\n        /* \"OracleConsumer.sol\":3272:3318  if (o.identityHash == bytes32(0)) return false */\n    tag_44:\n        /* \"OracleConsumer.sol\":3333:3334  o */\n      dup1\n        /* \"OracleConsumer.sol\":3333:3342  o.blocked */\n      0x40\n      add\n      mload\n        /* \"OracleConsumer.sol\":3329:3356  if (o.blocked) return false */\n      iszero\n      tag_45\n      jumpi\n        /* \"OracleConsumer.sol\":3351:3356  false */\n      0x00\n        /* \"OracleConsumer.sol\":3344:3356  return false */\n      swap2\n      pop\n      pop\n      jump(tag_43)\n        /* \"OracleConsumer.sol\":3329:3356  if (o.blocked) return false */\n    tag_45:\n        /* \"OracleConsumer.sol\":3383:3384  0 */\n      0x00\n        /* \"OracleConsumer.sol\":3371:3372  o */\n      dup2\n        /* \"OracleConsumer.sol\":3371:3379  o.expiry */\n      0x60\n      add\n      mload\n        /* \"OracleConsumer.sol\":3371:3384  o.expiry != 0 */\n      0xffffffffffffffff\n      and\n      eq\n      iszero\n        /* \"OracleConsumer.sol\":3371:3414  o.expiry != 0 && block.timestamp > o.expiry */\n      dup1\n      iszero\n      tag_46\n      jumpi\n      pop\n        /* \"OracleConsumer.sol\":3406:3407  o */\n      dup1\n        /* \"OracleConsumer.sol\":3406:3414  o.expiry */\n      0x60\n      add\n      mload\n        /* \"OracleConsumer.sol\":3388:3414  block.timestamp > o.expiry */\n      0xffffffffffffffff\n      and\n        /* \"OracleConsumer.sol\":3388:3403  block.timestamp */\n      timestamp\n        /* \"OracleConsumer.sol\":3388:3414  block.timestamp > o.expiry */\n      gt\n        /* \"OracleConsumer.sol\":3371:3414  o.expiry != 0 && block.timestamp > o.expiry */\n    tag_46:\n        /* \"OracleConsumer.sol\":3367:3428  if (o.expiry != 0 && block.timestamp > o.expiry) return false */\n      iszero\n      tag_47\n      jumpi\n        /* \"OracleConsumer.sol\":3423:3428  false */\n      0x00\n        /* \"OracleConsumer.sol\":3416:3428  return false */\n      swap2\n      pop\n      pop\n      jump(tag_43)\n        /* \"OracleConsumer.sol\":3367:3428  if (o.expiry != 0 && block.timestamp > o.expiry) return false */\n    tag_47:\n        /* \"OracleConsumer.sol\":3446:3450  true */\n      0x01\n        /* \"OracleConsumer.sol\":3439:3450  return true */\n      swap2\n      pop\n      pop\n        /* \"OracleConsumer.sol\":3140:3458  function isEligible(address wallet) external view returns (bool) {... */\n    tag_43:\n      swap2\n      swap1\n      pop\n      jump\t// out\n        /* \"@openzeppelin/contracts/access/Ownable.sol\":2293:2394  function renounceOwnership() public virtual onlyOwner {... */\n    tag_24:\n        /* \"@openzeppelin/contracts/access/Ownable.sol\":1531:1544  _checkOwner() */\n      tag_49\n        /* \"@openzeppelin/contracts/access/Ownable.sol\":1531:1542  _checkOwner */\n      tag_50\n        /* \"@openzeppelin/contracts/access/Ownable.sol\":1531:1544  _checkOwner() */\n      jump\t// in\n    tag_49:\n        /* \"@openzeppelin/contracts/access/Ownable.sol\":2357:2387  _transferOwnership(address(0)) */\n      tag_52\n        /* \"@openzeppelin/contracts/access/Ownable.sol\":2384:2385  0 */\n      0x00\n        /* \"@openzeppelin/contracts/access/Ownable.sol\":2357:2375  _transferOwnership */\n      tag_53\n        /* \"@openzeppelin/contracts/access/Ownable.sol\":2357:2387  _transferOwnership(address(0)) */\n      jump\t// in\n    tag_52:\n        /* \"@openzeppelin/contracts/access/Ownable.sol\":2293:2394  function renounceOwnership() public virtual onlyOwner {... */\n      jump\t// out\n        /* \"OracleConsumer.sol\":2187:2693  function updateIdentity(... */\n    tag_28:\n        /* \"OracleConsumer.sol\":1435:1441  oracle */\n      0x01\n      0x00\n      swap1\n      sload\n      swap1\n      0x0100\n      exp\n      swap1\n      div\n      0xffffffffffffffffffffffffffffffffffffffff\n      and\n        /* \"OracleConsumer.sol\":1421:1441  msg.sender == oracle */\n      0xffffffffffffffffffffffffffffffffffffffff\n      and\n        /* \"OracleConsumer.sol\":1421:1431  msg.sender */\n      caller\n        /* \"OracleConsumer.sol\":1421:1441  msg.sender == oracle */\n      0xffffffffffffffffffffffffffffffffffffffff\n      and\n      eq\n        /* \"OracleConsumer.sol\":1413:1472  require(msg.sender == oracle, \"OracleConsumer: not oracle\") */\n      tag_55\n      jumpi\n      mload(0x40)\n      0x08c379a000000000000000000000000000000000000000000000000000000000\n      dup2\n      mstore\n      0x04\n      add\n      tag_56\n      swap1\n      tag_57\n      jump\t// in\n    tag_56:\n      mload(0x40)\n      dup1\n      swap2\n      sub\n      swap1\n      revert\n    tag_55:\n        /* \"OracleConsumer.sol\":2406:2407  0 */\n      0x00\n        /* \"OracleConsumer.sol\":2388:2408  wallet != address(0) */\n      0xffffffffffffffffffffffffffffffffffffffff\n      and\n        /* \"OracleConsumer.sol\":2388:2394  wallet */\n      dup6\n        /* \"OracleConsumer.sol\":2388:2408  wallet != address(0) */\n      0xffffffffffffffffffffffffffffffffffffffff\n      and\n      sub\n        /* \"OracleConsumer.sol\":2380:2437  require(wallet != address(0), \"OracleConsumer: wallet=0\") */\n      tag_59\n      jumpi\n      mload(0x40)\n      0x08c379a000000000000000000000000000000000000000000000000000000000\n      dup2\n      mstore\n      0x04\n      add\n      tag_60\n      swap1\n      tag_61\n      jump\t// in\n    tag_60:\n      mload(0x40)\n      dup1\n      swap2\n      sub\n      swap1\n      revert\n    tag_59:\n        /* \"OracleConsumer.sol\":2480:2481  0 */\n      0x00\n        /* \"OracleConsumer.sol\":2472:2482  bytes32(0) */\n      dup1\n      shl\n        /* \"OracleConsumer.sol\":2456:2468  identityHash */\n      dup5\n        /* \"OracleConsumer.sol\":2456:2482  identityHash != bytes32(0) */\n      sub\n        /* \"OracleConsumer.sol\":2448:2511  require(identityHash != bytes32(0), \"OracleConsumer: idHash=0\") */\n      tag_62\n      jumpi\n      mload(0x40)\n      0x08c379a000000000000000000000000000000000000000000000000000000000\n      dup2\n      mstore\n      0x04\n      add\n      tag_63\n      swap1\n      tag_64\n      jump\t// in\n    tag_63:\n      mload(0x40)\n      dup1\n      swap2\n      sub\n      swap1\n      revert\n    tag_62:\n        /* \"OracleConsumer.sol\":2544:2601  OracleIdentity(identityHash, maxTickets, blocked, expiry) */\n      mload(0x40)\n      dup1\n      0x80\n      add\n      0x40\n      mstore\n      dup1\n        /* \"OracleConsumer.sol\":2559:2571  identityHash */\n      dup6\n        /* \"OracleConsumer.sol\":2544:2601  OracleIdentity(identityHash, maxTickets, blocked, expiry) */\n      dup2\n      mstore\n      0x20\n      add\n        /* \"OracleConsumer.sol\":2573:2583  maxTickets */\n      dup5\n        /* \"OracleConsumer.sol\":2544:2601  OracleIdentity(identityHash, maxTickets, blocked, expiry) */\n      0xffffffff\n      and\n      dup2\n      mstore\n      0x20\n      add\n        /* \"OracleConsumer.sol\":2585:2592  blocked */\n      dup4\n        /* \"OracleConsumer.sol\":2544:2601  OracleIdentity(identityHash, maxTickets, blocked, expiry) */\n      iszero\n      iszero\n      dup2\n      mstore\n      0x20\n      add\n        /* \"OracleConsumer.sol\":2594:2600  expiry */\n      dup3\n        /* \"OracleConsumer.sol\":2544:2601  OracleIdentity(identityHash, maxTickets, blocked, expiry) */\n      0xffffffffffffffff\n      and\n      dup2\n      mstore\n      pop\n        /* \"OracleConsumer.sol\":2522:2533  _identities */\n      0x02\n        /* \"OracleConsumer.sol\":2522:2541  _identities[wallet] */\n      0x00\n        /* \"OracleConsumer.sol\":2534:2540  wallet */\n      dup8\n        /* \"OracleConsumer.sol\":2522:2541  _identities[wallet] */\n      0xffffffffffffffffffffffffffffffffffffffff\n      and\n      0xffffffffffffffffffffffffffffffffffffffff\n      and\n      dup2\n      mstore\n      0x20\n      add\n      swap1\n      dup2\n      mstore\n      0x20\n      add\n      0x00\n      keccak256\n        /* \"OracleConsumer.sol\":2522:2601  _identities[wallet] = OracleIdentity(identityHash, maxTickets, blocked, expiry) */\n      0x00\n      dup3\n      add\n      mload\n      dup2\n      0x00\n      add\n      sstore\n      0x20\n      dup3\n      add\n      mload\n      dup2\n      0x01\n      add\n      exp(0x0100, 0x00)\n      dup2\n      sload\n      dup2\n      0xffffffff\n      mul\n      not\n      and\n      swap1\n      dup4\n      0xffffffff\n      and\n      mul\n      or\n      swap1\n      sstore\n      pop\n      0x40\n      dup3\n      add\n      mload\n      dup2\n      0x01\n      add\n      exp(0x0100, 0x04)\n      dup2\n      sload\n      dup2\n      0xff\n      mul\n      not\n      and\n      swap1\n      dup4\n      iszero\n      iszero\n      mul\n      or\n      swap1\n      sstore\n      pop\n      0x60\n      dup3\n      add\n      mload\n      dup2\n      0x01\n      add\n      exp(0x0100, 0x05)\n      dup2\n      sload\n      dup2\n      0xffffffffffffffff\n      mul\n      not\n      and\n      swap1\n      dup4\n      0xffffffffffffffff\n      and\n      mul\n      or\n      swap1\n      sstore\n      pop\n      swap1\n      pop\n      pop\n        /* \"OracleConsumer.sol\":2635:2641  wallet */\n      dup5\n        /* \"OracleConsumer.sol\":2619:2685  IdentityUpdated(wallet, identityHash, maxTickets, blocked, expiry) */\n      0xffffffffffffffffffffffffffffffffffffffff\n      and\n      0x994ef2a9461b7c1cb2734a45242b9d6cbf923f0fa1fc65ebde80473ed7f191b2\n        /* \"OracleConsumer.sol\":2643:2655  identityHash */\n      dup6\n        /* \"OracleConsumer.sol\":2657:2667  maxTickets */\n      dup6\n        /* \"OracleConsumer.sol\":2669:2676  blocked */\n      dup6\n        /* \"OracleConsumer.sol\":2678:2684  expiry */\n      dup6\n        /* \"OracleConsumer.sol\":2619:2685  IdentityUpdated(wallet, identityHash, maxTickets, blocked, expiry) */\n      mload(0x40)\n      tag_65\n      swap5\n      swap4\n      swap3\n      swap2\n      swap1\n      tag_17\n      jump\t// in\n    tag_65:\n      mload(0x40)\n      dup1\n      swap2\n      sub\n      swap1\n      log2\n        /* \"OracleConsumer.sol\":2187:2693  function updateIdentity(... */\n      pop\n      pop\n      pop\n      pop\n      pop\n      jump\t// out\n        /* \"OracleConsumer.sol\":1790:2031  function setOracle(address newOracle) external onlyOwner {... */\n    tag_31:\n        /* \"@openzeppelin/contracts/access/Ownable.sol\":1531:1544  _checkOwner() */\n      tag_67\n        /* \"@openzeppelin/contracts/access/Ownable.sol\":1531:1542  _checkOwner */\n      tag_50\n        /* \"@openzeppelin/contracts/access/Ownable.sol\":1531:1544  _checkOwner() */\n      jump\t// in\n    tag_67:\n        /* \"OracleConsumer.sol\":1887:1888  0 */\n      0x00\n        /* \"OracleConsumer.sol\":1866:1889  newOracle != address(0) */\n      0xffffffffffffffffffffffffffffffffffffffff\n      and\n        /* \"OracleConsumer.sol\":1866:1875  newOracle */\n      dup2\n        /* \"OracleConsumer.sol\":1866:1889  newOracle != address(0) */\n      0xffffffffffffffffffffffffffffffffffffffff\n      and\n      sub\n        /* \"OracleConsumer.sol\":1858:1918  require(newOracle != address(0), \"OracleConsumer: oracle=0\") */\n      tag_69\n      jumpi\n      mload(0x40)\n      0x08c379a000000000000000000000000000000000000000000000000000000000\n      dup2\n      mstore\n      0x04\n      add\n      tag_70\n      swap1\n      tag_71\n      jump\t// in\n    tag_70:\n      mload(0x40)\n      dup1\n      swap2\n      sub\n      swap1\n      revert\n    tag_69:\n        /* \"OracleConsumer.sol\":1929:1940  address old */\n      0x00\n        /* \"OracleConsumer.sol\":1943:1949  oracle */\n      0x01\n      0x00\n      swap1\n      sload\n      swap1\n      0x0100\n      exp\n      swap1\n      div\n      0xffffffffffffffffffffffffffffffffffffffff\n      and\n        /* \"OracleConsumer.sol\":1929:1949  address old = oracle */\n      swap1\n      pop\n        /* \"OracleConsumer.sol\":1969:1978  newOracle */\n      dup2\n        /* \"OracleConsumer.sol\":1960:1966  oracle */\n      0x01\n      0x00\n        /* \"OracleConsumer.sol\":1960:1978  oracle = newOracle */\n      0x0100\n      exp\n      dup2\n      sload\n      dup2\n      0xffffffffffffffffffffffffffffffffffffffff\n      mul\n      not\n      and\n      swap1\n      dup4\n      0xffffffffffffffffffffffffffffffffffffffff\n      and\n      mul\n      or\n      swap1\n      sstore\n      pop\n        /* \"OracleConsumer.sol\":2013:2022  newOracle */\n      dup2\n        /* \"OracleConsumer.sol\":1994:2023  OracleUpdated(old, newOracle) */\n      0xffffffffffffffffffffffffffffffffffffffff\n      and\n        /* \"OracleConsumer.sol\":2008:2011  old */\n      dup2\n        /* \"OracleConsumer.sol\":1994:2023  OracleUpdated(old, newOracle) */\n      0xffffffffffffffffffffffffffffffffffffffff\n      and\n      0x078c3b417dadf69374a59793b829c52001247130433427049317bde56607b1b7\n      mload(0x40)\n      mload(0x40)\n      dup1\n      swap2\n      sub\n      swap1\n      log3\n        /* \"OracleConsumer.sol\":1847:2031  {... */\n      pop\n        /* \"OracleConsumer.sol\":1790:2031  function setOracle(address newOracle) external onlyOwner {... */\n      pop\n      jump\t// out\n        /* \"OracleConsumer.sol\":1031:1052  address public oracle */\n    tag_33:\n      0x01\n      0x00\n      swap1\n      sload\n      swap1\n      0x0100\n      exp\n      swap1\n      div\n      0xffffffffffffffffffffffffffffffffffffffff\n      and\n      dup2\n      jump\t// out\n        /* \"@openzeppelin/contracts/access/Ownable.sol\":1638:1723  function owner() public view virtual returns (address) {... */\n    tag_37:\n        /* \"@openzeppelin/contracts/access/Ownable.sol\":1684:1691  address */\n      0x00\n        /* \"@openzeppelin/contracts/access/Ownable.sol\":1710:1716  _owner */\n      dup1\n      0x00\n      swap1\n      sload\n      swap1\n      0x0100\n      exp\n      swap1\n      div\n      0xffffffffffffffffffffffffffffffffffffffff\n      and\n        /* \"@openzeppelin/contracts/access/Ownable.sol\":1703:1716  return _owner */\n      swap1\n      pop\n        /* \"@openzeppelin/contracts/access/Ownable.sol\":1638:1723  function owner() public view virtual returns (address) {... */\n      swap1\n      jump\t// out\n        /* \"@openzeppelin/contracts/access/Ownable.sol\":2543:2758  function transferOwnership(address newOwner) public virtual onlyOwner {... */\n    tag_41:\n        /* \"@openzeppelin/contracts/access/Ownable.sol\":1531:1544  _checkOwner() */\n      tag_74\n        /* \"@openzeppelin/contracts/access/Ownable.sol\":1531:1542  _checkOwner */\n      tag_50\n        /* \"@openzeppelin/contracts/access/Ownable.sol\":1531:1544  _checkOwner() */\n      jump\t// in\n    tag_74:\n        /* \"@openzeppelin/contracts/access/Ownable.sol\":2647:2648  0 */\n      0x00\n        /* \"@openzeppelin/contracts/access/Ownable.sol\":2627:2649  newOwner == address(0) */\n      0xffffffffffffffffffffffffffffffffffffffff\n      and\n        /* \"@openzeppelin/contracts/access/Ownable.sol\":2627:2635  newOwner */\n      dup2\n        /* \"@openzeppelin/contracts/access/Ownable.sol\":2627:2649  newOwner == address(0) */\n      0xffffffffffffffffffffffffffffffffffffffff\n      and\n      sub\n        /* \"@openzeppelin/contracts/access/Ownable.sol\":2623:2714  if (newOwner == address(0)) {... */\n      tag_76\n      jumpi\n        /* \"@openzeppelin/contracts/access/Ownable.sol\":2700:2701  0 */\n      0x00\n        /* \"@openzeppelin/contracts/access/Ownable.sol\":2672:2703  OwnableInvalidOwner(address(0)) */\n      mload(0x40)\n      0x1e4fbdf700000000000000000000000000000000000000000000000000000000\n      dup2\n      mstore\n      0x04\n      add\n      tag_77\n      swap2\n      swap1\n      tag_35\n      jump\t// in\n    tag_77:\n      mload(0x40)\n      dup1\n      swap2\n      sub\n      swap1\n      revert\n        /* \"@openzeppelin/contracts/access/Ownable.sol\":2623:2714  if (newOwner == address(0)) {... */\n    tag_76:\n        /* \"@openzeppelin/contracts/access/Ownable.sol\":2723:2751  _transferOwnership(newOwner) */\n      tag_78\n        /* \"@openzeppelin/contracts/access/Ownable.sol\":2742:2750  newOwner */\n      dup2\n        /* \"@openzeppelin/contracts/access/Ownable.sol\":2723:2741  _transferOwnership */\n      tag_53\n        /* \"@openzeppelin/contracts/access/Ownable.sol\":2723:2751  _transferOwnership(newOwner) */\n      jump\t// in\n    tag_78:\n        /* \"@openzeppelin/contracts/access/Ownable.sol\":2543:2758  function transferOwnership(address newOwner) public virtual onlyOwner {... */\n      pop\n      jump\t// out\n        /* \"@openzeppelin/contracts/access/Ownable.sol\":1796:1958  function _checkOwner() internal view virtual {... */\n    tag_50:\n        /* \"@openzeppelin/contracts/access/Ownable.sol\":1866:1878  _msgSender() */\n      tag_80\n        /* \"@openzeppelin/contracts/access/Ownable.sol\":1866:1876  _msgSender */\n      tag_81\n        /* \"@openzeppelin/contracts/access/Ownable.sol\":1866:1878  _msgSender() */\n      jump\t// in\n    tag_80:\n        /* \"@openzeppelin/contracts/access/Ownable.sol\":1855:1878  owner() != _msgSender() */\n      0xffffffffffffffffffffffffffffffffffffffff\n      and\n        /* \"@openzeppelin/contracts/access/Ownable.sol\":1855:1862  owner() */\n      tag_82\n        /* \"@openzeppelin/contracts/access/Ownable.sol\":1855:1860  owner */\n      tag_37\n        /* \"@openzeppelin/contracts/access/Ownable.sol\":1855:1862  owner() */\n      jump\t// in\n    tag_82:\n        /* \"@openzeppelin/contracts/access/Ownable.sol\":1855:1878  owner() != _msgSender() */\n      0xffffffffffffffffffffffffffffffffffffffff\n      and\n      eq\n        /* \"@openzeppelin/contracts/access/Ownable.sol\":1851:1952  if (owner() != _msgSender()) {... */\n      tag_83\n      jumpi\n        /* \"@openzeppelin/contracts/access/Ownable.sol\":1928:1940  _msgSender() */\n      tag_84\n        /* \"@openzeppelin/contracts/access/Ownable.sol\":1928:1938  _msgSender */\n      tag_81\n        /* \"@openzeppelin/contracts/access/Ownable.sol\":1928:1940  _msgSender() */\n      jump\t// in\n    tag_84:\n        /* \"@openzeppelin/contracts/access/Ownable.sol\":1901:1941  OwnableUnauthorizedAccount(_msgSender()) */\n      mload(0x40)\n      0x118cdaa700000000000000000000000000000000000000000000000000000000\n      dup2\n      mstore\n      0x04\n      add\n      tag_85\n      swap2\n      swap1\n      tag_35\n      jump\t// in\n    tag_85:\n      mload(0x40)\n      dup1\n      swap2\n      sub\n      swap1\n      revert\n        /* \"@openzeppelin/contracts/access/Ownable.sol\":1851:1952  if (owner() != _msgSender()) {... */\n    tag_83:\n        /* \"@openzeppelin/contracts/access/Ownable.sol\":1796:1958  function _checkOwner() internal view virtual {... */\n      jump\t// out\n        /* \"@openzeppelin/contracts/access/Ownable.sol\":2912:3099  function _transferOwnership(address newOwner) internal virtual {... */\n    tag_53:\n        /* \"@openzeppelin/contracts/access/Ownable.sol\":2985:3001  address oldOwner */\n      0x00\n        /* \"@openzeppelin/contracts/access/Ownable.sol\":3004:3010  _owner */\n      dup1\n      0x00\n      swap1\n      sload\n      swap1\n      0x0100\n      exp\n      swap1\n      div\n      0xffffffffffffffffffffffffffffffffffffffff\n      and\n        /* \"@openzeppelin/contracts/access/Ownable.sol\":2985:3010  address oldOwner = _owner */\n      swap1\n      pop\n        /* \"@openzeppelin/contracts/access/Ownable.sol\":3029:3037  newOwner */\n      dup2\n        /* \"@openzeppelin/contracts/access/Ownable.sol\":3020:3026  _owner */\n      0x00\n      dup1\n        /* \"@openzeppelin/contracts/access/Ownable.sol\":3020:3037  _owner = newOwner */\n      0x0100\n      exp\n      dup2\n      sload\n      dup2\n      0xffffffffffffffffffffffffffffffffffffffff\n      mul\n      not\n      and\n      swap1\n      dup4\n      0xffffffffffffffffffffffffffffffffffffffff\n      and\n      mul\n      or\n      swap1\n      sstore\n      pop\n        /* \"@openzeppelin/contracts/access/Ownable.sol\":3083:3091  newOwner */\n      dup2\n        /* \"@openzeppelin/contracts/access/Ownable.sol\":3052:3092  OwnershipTransferred(oldOwner, newOwner) */\n      0xffffffffffffffffffffffffffffffffffffffff\n      and\n        /* \"@openzeppelin/contracts/access/Ownable.sol\":3073:3081  oldOwner */\n      dup2\n        /* \"@openzeppelin/contracts/access/Ownable.sol\":3052:3092  OwnershipTransferred(oldOwner, newOwner) */\n      0xffffffffffffffffffffffffffffffffffffffff\n      and\n      0x8be0079c531659141344cd1fd0a4f28419497f9722a3daafe3b4186f6b6457e0\n      mload(0x40)\n      mload(0x40)\n      dup1\n      swap2\n      sub\n      swap1\n      log3\n        /* \"@openzeppelin/contracts/access/Ownable.sol\":2975:3099  {... */\n      pop\n        /* \"@openzeppelin/contracts/access/Ownable.sol\":2912:3099  function _transferOwnership(address newOwner) internal virtual {... */\n      pop\n      jump\t// out\n        /* \"@openzeppelin/contracts/utils/Context.sol\":656:752  function _msgSender() internal view virtual returns (address) {... */\n    tag_81:\n        /* \"@openzeppelin/contracts/utils/Context.sol\":709:716  address */\n      0x00\n        /* \"@openzeppelin/contracts/utils/Context.sol\":735:745  msg.sender */\n      caller\n        /* \"@openzeppelin/contracts/utils/Context.sol\":728:745  return msg.sender */\n      swap1\n      pop\n        /* \"@openzeppelin/contracts/utils/Context.sol\":656:752  function _msgSender() internal view virtual returns (address) {... */\n      swap1\n      jump\t// out\n        /* \"#utility.yul\":88:205   */\n    tag_89:\n        /* \"#utility.yul\":197:198   */\n      0x00\n        /* \"#utility.yul\":194:195   */\n      dup1\n        /* \"#utility.yul\":187:199   */\n      revert\n        /* \"#utility.yul\":334:460   */\n    tag_91:\n        /* \"#utility.yul\":371:378   */\n      0x00\n        /* \"#utility.yul\":411:453   */\n      0xffffffffffffffffffffffffffffffffffffffff\n        /* \"#utility.yul\":404:409   */\n      dup3\n        /* \"#utility.yul\":400:454   */\n      and\n        /* \"#utility.yul\":389:454   */\n      swap1\n      pop\n        /* \"#utility.yul\":334:460   */\n      swap2\n      swap1\n      pop\n      jump\t// out\n        /* \"#utility.yul\":466:562   */\n    tag_92:\n        /* \"#utility.yul\":503:510   */\n      0x00\n        /* \"#utility.yul\":532:556   */\n      tag_127\n        /* \"#utility.yul\":550:555   */\n      dup3\n        /* \"#utility.yul\":532:556   */\n      tag_91\n      jump\t// in\n    tag_127:\n        /* \"#utility.yul\":521:556   */\n      swap1\n      pop\n        /* \"#utility.yul\":466:562   */\n      swap2\n      swap1\n      pop\n      jump\t// out\n        /* \"#utility.yul\":568:690   */\n    tag_93:\n        /* \"#utility.yul\":641:665   */\n      tag_129\n        /* \"#utility.yul\":659:664   */\n      dup2\n        /* \"#utility.yul\":641:665   */\n      tag_92\n      jump\t// in\n    tag_129:\n        /* \"#utility.yul\":634:639   */\n      dup2\n        /* \"#utility.yul\":631:666   */\n      eq\n        /* \"#utility.yul\":621:684   */\n      tag_130\n      jumpi\n        /* \"#utility.yul\":680:681   */\n      0x00\n        /* \"#utility.yul\":677:678   */\n      dup1\n        /* \"#utility.yul\":670:682   */\n      revert\n        /* \"#utility.yul\":621:684   */\n    tag_130:\n        /* \"#utility.yul\":568:690   */\n      pop\n      jump\t// out\n        /* \"#utility.yul\":696:835   */\n    tag_94:\n        /* \"#utility.yul\":742:747   */\n      0x00\n        /* \"#utility.yul\":780:786   */\n      dup2\n        /* \"#utility.yul\":767:787   */\n      calldataload\n        /* \"#utility.yul\":758:787   */\n      swap1\n      pop\n        /* \"#utility.yul\":796:829   */\n      tag_132\n        /* \"#utility.yul\":823:828   */\n      dup2\n        /* \"#utility.yul\":796:829   */\n      tag_93\n      jump\t// in\n    tag_132:\n        /* \"#utility.yul\":696:835   */\n      swap3\n      swap2\n      pop\n      pop\n      jump\t// out\n        /* \"#utility.yul\":841:1170   */\n    tag_14:\n        /* \"#utility.yul\":900:906   */\n      0x00\n        /* \"#utility.yul\":949:951   */\n      0x20\n        /* \"#utility.yul\":937:946   */\n      dup3\n        /* \"#utility.yul\":928:935   */\n      dup5\n        /* \"#utility.yul\":924:947   */\n      sub\n        /* \"#utility.yul\":920:952   */\n      slt\n        /* \"#utility.yul\":917:1036   */\n      iszero\n      tag_134\n      jumpi\n        /* \"#utility.yul\":955:1034   */\n      tag_135\n      tag_89\n      jump\t// in\n    tag_135:\n        /* \"#utility.yul\":917:1036   */\n    tag_134:\n        /* \"#utility.yul\":1075:1076   */\n      0x00\n        /* \"#utility.yul\":1100:1153   */\n      tag_136\n        /* \"#utility.yul\":1145:1152   */\n      dup5\n        /* \"#utility.yul\":1136:1142   */\n      dup3\n        /* \"#utility.yul\":1125:1134   */\n      dup6\n        /* \"#utility.yul\":1121:1143   */\n      add\n        /* \"#utility.yul\":1100:1153   */\n      tag_94\n      jump\t// in\n    tag_136:\n        /* \"#utility.yul\":1090:1153   */\n      swap2\n      pop\n        /* \"#utility.yul\":1046:1163   */\n      pop\n        /* \"#utility.yul\":841:1170   */\n      swap3\n      swap2\n      pop\n      pop\n      jump\t// out\n        /* \"#utility.yul\":1176:1253   */\n    tag_95:\n        /* \"#utility.yul\":1213:1220   */\n      0x00\n        /* \"#utility.yul\":1242:1247   */\n      dup2\n        /* \"#utility.yul\":1231:1247   */\n      swap1\n      pop\n        /* \"#utility.yul\":1176:1253   */\n      swap2\n      swap1\n      pop\n      jump\t// out\n        /* \"#utility.yul\":1259:1377   */\n    tag_96:\n        /* \"#utility.yul\":1346:1370   */\n      tag_139\n        /* \"#utility.yul\":1364:1369   */\n      dup2\n        /* \"#utility.yul\":1346:1370   */\n      tag_95\n      jump\t// in\n    tag_139:\n        /* \"#utility.yul\":1341:1344   */\n      dup3\n        /* \"#utility.yul\":1334:1371   */\n      mstore\n        /* \"#utility.yul\":1259:1377   */\n      pop\n      pop\n      jump\t// out\n        /* \"#utility.yul\":1383:1476   */\n    tag_97:\n        /* \"#utility.yul\":1419:1426   */\n      0x00\n        /* \"#utility.yul\":1459:1469   */\n      0xffffffff\n        /* \"#utility.yul\":1452:1457   */\n      dup3\n        /* \"#utility.yul\":1448:1470   */\n      and\n        /* \"#utility.yul\":1437:1470   */\n      swap1\n      pop\n        /* \"#utility.yul\":1383:1476   */\n      swap2\n      swap1\n      pop\n      jump\t// out\n        /* \"#utility.yul\":1482:1597   */\n    tag_98:\n        /* \"#utility.yul\":1567:1590   */\n      tag_142\n        /* \"#utility.yul\":1584:1589   */\n      dup2\n        /* \"#utility.yul\":1567:1590   */\n      tag_97\n      jump\t// in\n    tag_142:\n        /* \"#utility.yul\":1562:1565   */\n      dup3\n        /* \"#utility.yul\":1555:1591   */\n      mstore\n        /* \"#utility.yul\":1482:1597   */\n      pop\n      pop\n      jump\t// out\n        /* \"#utility.yul\":1603:1693   */\n    tag_99:\n        /* \"#utility.yul\":1637:1644   */\n      0x00\n        /* \"#utility.yul\":1680:1685   */\n      dup2\n        /* \"#utility.yul\":1673:1686   */\n      iszero\n        /* \"#utility.yul\":1666:1687   */\n      iszero\n        /* \"#utility.yul\":1655:1687   */\n      swap1\n      pop\n        /* \"#utility.yul\":1603:1693   */\n      swap2\n      swap1\n      pop\n      jump\t// out\n        /* \"#utility.yul\":1699:1808   */\n    tag_100:\n        /* \"#utility.yul\":1780:1801   */\n      tag_145\n        /* \"#utility.yul\":1795:1800   */\n      dup2\n        /* \"#utility.yul\":1780:1801   */\n      tag_99\n      jump\t// in\n    tag_145:\n        /* \"#utility.yul\":1775:1778   */\n      dup3\n        /* \"#utility.yul\":1768:1802   */\n      mstore\n        /* \"#utility.yul\":1699:1808   */\n      pop\n      pop\n      jump\t// out\n        /* \"#utility.yul\":1814:1915   */\n    tag_101:\n        /* \"#utility.yul\":1850:1857   */\n      0x00\n        /* \"#utility.yul\":1890:1908   */\n      0xffffffffffffffff\n        /* \"#utility.yul\":1883:1888   */\n      dup3\n        /* \"#utility.yul\":1879:1909   */\n      and\n        /* \"#utility.yul\":1868:1909   */\n      swap1\n      pop\n        /* \"#utility.yul\":1814:1915   */\n      swap2\n      swap1\n      pop\n      jump\t// out\n        /* \"#utility.yul\":1921:2036   */\n    tag_102:\n        /* \"#utility.yul\":2006:2029   */\n      tag_148\n        /* \"#utility.yul\":2023:2028   */\n      dup2\n        /* \"#utility.yul\":2006:2029   */\n      tag_101\n      jump\t// in\n    tag_148:\n        /* \"#utility.yul\":2001:2004   */\n      dup3\n        /* \"#utility.yul\":1994:2030   */\n      mstore\n        /* \"#utility.yul\":1921:2036   */\n      pop\n      pop\n      jump\t// out\n        /* \"#utility.yul\":2042:2575   */\n    tag_17:\n        /* \"#utility.yul\":2209:2213   */\n      0x00\n        /* \"#utility.yul\":2247:2250   */\n      0x80\n        /* \"#utility.yul\":2236:2245   */\n      dup3\n        /* \"#utility.yul\":2232:2251   */\n      add\n        /* \"#utility.yul\":2224:2251   */\n      swap1\n      pop\n        /* \"#utility.yul\":2261:2332   */\n      tag_150\n        /* \"#utility.yul\":2329:2330   */\n      0x00\n        /* \"#utility.yul\":2318:2327   */\n      dup4\n        /* \"#utility.yul\":2314:2331   */\n      add\n        /* \"#utility.yul\":2305:2311   */\n      dup8\n        /* \"#utility.yul\":2261:2332   */\n      tag_96\n      jump\t// in\n    tag_150:\n        /* \"#utility.yul\":2342:2412   */\n      tag_151\n        /* \"#utility.yul\":2408:2410   */\n      0x20\n        /* \"#utility.yul\":2397:2406   */\n      dup4\n        /* \"#utility.yul\":2393:2411   */\n      add\n        /* \"#utility.yul\":2384:2390   */\n      dup7\n        /* \"#utility.yul\":2342:2412   */\n      tag_98\n      jump\t// in\n    tag_151:\n        /* \"#utility.yul\":2422:2488   */\n      tag_152\n        /* \"#utility.yul\":2484:2486   */\n      0x40\n        /* \"#utility.yul\":2473:2482   */\n      dup4\n        /* \"#utility.yul\":2469:2487   */\n      add\n        /* \"#utility.yul\":2460:2466   */\n      dup6\n        /* \"#utility.yul\":2422:2488   */\n      tag_100\n      jump\t// in\n    tag_152:\n        /* \"#utility.yul\":2498:2568   */\n      tag_153\n        /* \"#utility.yul\":2564:2566   */\n      0x60\n        /* \"#utility.yul\":2553:2562   */\n      dup4\n        /* \"#utility.yul\":2549:2567   */\n      add\n        /* \"#utility.yul\":2540:2546   */\n      dup5\n        /* \"#utility.yul\":2498:2568   */\n      tag_102\n      jump\t// in\n    tag_153:\n        /* \"#utility.yul\":2042:2575   */\n      swap6\n      swap5\n      pop\n      pop\n      pop\n      pop\n      pop\n      jump\t// out\n        /* \"#utility.yul\":2581:2791   */\n    tag_22:\n        /* \"#utility.yul\":2668:2672   */\n      0x00\n        /* \"#utility.yul\":2706:2708   */\n      0x20\n        /* \"#utility.yul\":2695:2704   */\n      dup3\n        /* \"#utility.yul\":2691:2709   */\n      add\n        /* \"#utility.yul\":2683:2709   */\n      swap1\n      pop\n        /* \"#utility.yul\":2719:2784   */\n      tag_155\n        /* \"#utility.yul\":2781:2782   */\n      0x00\n        /* \"#utility.yul\":2770:2779   */\n      dup4\n        /* \"#utility.yul\":2766:2783   */\n      add\n        /* \"#utility.yul\":2757:2763   */\n      dup5\n        /* \"#utility.yul\":2719:2784   */\n      tag_100\n      jump\t// in\n    tag_155:\n        /* \"#utility.yul\":2581:2791   */\n      swap3\n      swap2\n      pop\n      pop\n      jump\t// out\n        /* \"#utility.yul\":2797:2919   */\n    tag_103:\n        /* \"#utility.yul\":2870:2894   */\n      tag_157\n        /* \"#utility.yul\":2888:2893   */\n      dup2\n        /* \"#utility.yul\":2870:2894   */\n      tag_95\n      jump\t// in\n    tag_157:\n        /* \"#utility.yul\":2863:2868   */\n      dup2\n        /* \"#utility.yul\":2860:2895   */\n      eq\n        /* \"#utility.yul\":2850:2913   */\n      tag_158\n      jumpi\n        /* \"#utility.yul\":2909:2910   */\n      0x00\n        /* \"#utility.yul\":2906:2907   */\n      dup1\n        /* \"#utility.yul\":2899:2911   */\n      revert\n        /* \"#utility.yul\":2850:2913   */\n    tag_158:\n        /* \"#utility.yul\":2797:2919   */\n      pop\n      jump\t// out\n        /* \"#utility.yul\":2925:3064   */\n    tag_104:\n        /* \"#utility.yul\":2971:2976   */\n      0x00\n        /* \"#utility.yul\":3009:3015   */\n      dup2\n        /* \"#utility.yul\":2996:3016   */\n      calldataload\n        /* \"#utility.yul\":2987:3016   */\n      swap1\n      pop\n        /* \"#utility.yul\":3025:3058   */\n      tag_160\n        /* \"#utility.yul\":3052:3057   */\n      dup2\n        /* \"#utility.yul\":3025:3058   */\n      tag_103\n      jump\t// in\n    tag_160:\n        /* \"#utility.yul\":2925:3064   */\n      swap3\n      swap2\n      pop\n      pop\n      jump\t// out\n        /* \"#utility.yul\":3070:3190   */\n    tag_105:\n        /* \"#utility.yul\":3142:3165   */\n      tag_162\n        /* \"#utility.yul\":3159:3164   */\n      dup2\n        /* \"#utility.yul\":3142:3165   */\n      tag_97\n      jump\t// in\n    tag_162:\n        /* \"#utility.yul\":3135:3140   */\n      dup2\n        /* \"#utility.yul\":3132:3166   */\n      eq\n        /* \"#utility.yul\":3122:3184   */\n      tag_163\n      jumpi\n        /* \"#utility.yul\":3180:3181   */\n      0x00\n        /* \"#utility.yul\":3177:3178   */\n      dup1\n        /* \"#utility.yul\":3170:3182   */\n      revert\n        /* \"#utility.yul\":3122:3184   */\n    tag_163:\n        /* \"#utility.yul\":3070:3190   */\n      pop\n      jump\t// out\n        /* \"#utility.yul\":3196:3333   */\n    tag_106:\n        /* \"#utility.yul\":3241:3246   */\n      0x00\n        /* \"#utility.yul\":3279:3285   */\n      dup2\n        /* \"#utility.yul\":3266:3286   */\n      calldataload\n        /* \"#utility.yul\":3257:3286   */\n      swap1\n      pop\n        /* \"#utility.yul\":3295:3327   */\n      tag_165\n        /* \"#utility.yul\":3321:3326   */\n      dup2\n        /* \"#utility.yul\":3295:3327   */\n      tag_105\n      jump\t// in\n    tag_165:\n        /* \"#utility.yul\":3196:3333   */\n      swap3\n      swap2\n      pop\n      pop\n      jump\t// out\n        /* \"#utility.yul\":3339:3455   */\n    tag_107:\n        /* \"#utility.yul\":3409:3430   */\n      tag_167\n        /* \"#utility.yul\":3424:3429   */\n      dup2\n        /* \"#utility.yul\":3409:3430   */\n      tag_99\n      jump\t// in\n    tag_167:\n        /* \"#utility.yul\":3402:3407   */\n      dup2\n        /* \"#utility.yul\":3399:3431   */\n      eq\n        /* \"#utility.yul\":3389:3449   */\n      tag_168\n      jumpi\n        /* \"#utility.yul\":3445:3446   */\n      0x00\n        /* \"#utility.yul\":3442:3443   */\n      dup1\n        /* \"#utility.yul\":3435:3447   */\n      revert\n        /* \"#utility.yul\":3389:3449   */\n    tag_168:\n        /* \"#utility.yul\":3339:3455   */\n      pop\n      jump\t// out\n        /* \"#utility.yul\":3461:3594   */\n    tag_108:\n        /* \"#utility.yul\":3504:3509   */\n      0x00\n        /* \"#utility.yul\":3542:3548   */\n      dup2\n        /* \"#utility.yul\":3529:3549   */\n      calldataload\n        /* \"#utility.yul\":3520:3549   */\n      swap1\n      pop\n        /* \"#utility.yul\":3558:3588   */\n      tag_170\n        /* \"#utility.yul\":3582:3587   */\n      dup2\n        /* \"#utility.yul\":3558:3588   */\n      tag_107\n      jump\t// in\n    tag_170:\n        /* \"#utility.yul\":3461:3594   */\n      swap3\n      swap2\n      pop\n      pop\n      jump\t// out\n        /* \"#utility.yul\":3600:3720   */\n    tag_109:\n        /* \"#utility.yul\":3672:3695   */\n      tag_172\n        /* \"#utility.yul\":3689:3694   */\n      dup2\n        /* \"#utility.yul\":3672:3695   */\n      tag_101\n      jump\t// in\n    tag_172:\n        /* \"#utility.yul\":3665:3670   */\n      dup2\n        /* \"#utility.yul\":3662:3696   */\n      eq\n        /* \"#utility.yul\":3652:3714   */\n      tag_173\n      jumpi\n        /* \"#utility.yul\":3710:3711   */\n      0x00\n        /* \"#utility.yul\":3707:3708   */\n      dup1\n        /* \"#utility.yul\":3700:3712   */\n      revert\n        /* \"#utility.yul\":3652:3714   */\n    tag_173:\n        /* \"#utility.yul\":3600:3720   */\n      pop\n      jump\t// out\n        /* \"#utility.yul\":3726:3863   */\n    tag_110:\n        /* \"#utility.yul\":3771:3776   */\n      0x00\n        /* \"#utility.yul\":3809:3815   */\n      dup2\n        /* \"#utility.yul\":3796:3816   */\n      calldataload\n        /* \"#utility.yul\":3787:3816   */\n      swap1\n      pop\n        /* \"#utility.yul\":3825:3857   */\n      tag_175\n        /* \"#utility.yul\":3851:3856   */\n      dup2\n        /* \"#utility.yul\":3825:3857   */\n      tag_109\n      jump\t// in\n    tag_175:\n        /* \"#utility.yul\":3726:3863   */\n      swap3\n      swap2\n      pop\n      pop\n      jump\t// out\n        /* \"#utility.yul\":3869:4770   */\n    tag_27:\n        /* \"#utility.yul\":3959:3965   */\n      0x00\n        /* \"#utility.yul\":3967:3973   */\n      dup1\n        /* \"#utility.yul\":3975:3981   */\n      0x00\n        /* \"#utility.yul\":3983:3989   */\n      dup1\n        /* \"#utility.yul\":3991:3997   */\n      0x00\n        /* \"#utility.yul\":4040:4043   */\n      0xa0\n        /* \"#utility.yul\":4028:4037   */\n      dup7\n        /* \"#utility.yul\":4019:4026   */\n      dup9\n        /* \"#utility.yul\":4015:4038   */\n      sub\n        /* \"#utility.yul\":4011:4044   */\n      slt\n        /* \"#utility.yul\":4008:4128   */\n      iszero\n      tag_177\n      jumpi\n        /* \"#utility.yul\":4047:4126   */\n      tag_178\n      tag_89\n      jump\t// in\n    tag_178:\n        /* \"#utility.yul\":4008:4128   */\n    tag_177:\n        /* \"#utility.yul\":4167:4168   */\n      0x00\n        /* \"#utility.yul\":4192:4245   */\n      tag_179\n        /* \"#utility.yul\":4237:4244   */\n      dup9\n        /* \"#utility.yul\":4228:4234   */\n      dup3\n        /* \"#utility.yul\":4217:4226   */\n      dup10\n        /* \"#utility.yul\":4213:4235   */\n      add\n        /* \"#utility.yul\":4192:4245   */\n      tag_94\n      jump\t// in\n    tag_179:\n        /* \"#utility.yul\":4182:4245   */\n      swap6\n      pop\n        /* \"#utility.yul\":4138:4255   */\n      pop\n        /* \"#utility.yul\":4294:4296   */\n      0x20\n        /* \"#utility.yul\":4320:4373   */\n      tag_180\n        /* \"#utility.yul\":4365:4372   */\n      dup9\n        /* \"#utility.yul\":4356:4362   */\n      dup3\n        /* \"#utility.yul\":4345:4354   */\n      dup10\n        /* \"#utility.yul\":4341:4363   */\n      add\n        /* \"#utility.yul\":4320:4373   */\n      tag_104\n      jump\t// in\n    tag_180:\n        /* \"#utility.yul\":4310:4373   */\n      swap5\n      pop\n        /* \"#utility.yul\":4265:4383   */\n      pop\n        /* \"#utility.yul\":4422:4424   */\n      0x40\n        /* \"#utility.yul\":4448:4500   */\n      tag_181\n        /* \"#utility.yul\":4492:4499   */\n      dup9\n        /* \"#utility.yul\":4483:4489   */\n      dup3\n        /* \"#utility.yul\":4472:4481   */\n      dup10\n        /* \"#utility.yul\":4468:4490   */\n      add\n        /* \"#utility.yul\":4448:4500   */\n      tag_106\n      jump\t// in\n    tag_181:\n        /* \"#utility.yul\":4438:4500   */\n      swap4\n      pop\n        /* \"#utility.yul\":4393:4510   */\n      pop\n        /* \"#utility.yul\":4549:4551   */\n      0x60\n        /* \"#utility.yul\":4575:4625   */\n      tag_182\n        /* \"#utility.yul\":4617:4624   */\n      dup9\n        /* \"#utility.yul\":4608:4614   */\n      dup3\n        /* \"#utility.yul\":4597:4606   */\n      dup10\n        /* \"#utility.yul\":4593:4615   */\n      add\n        /* \"#utility.yul\":4575:4625   */\n      tag_108\n      jump\t// in\n    tag_182:\n        /* \"#utility.yul\":4565:4625   */\n      swap3\n      pop\n        /* \"#utility.yul\":4520:4635   */\n      pop\n        /* \"#utility.yul\":4674:4677   */\n      0x80\n        /* \"#utility.yul\":4701:4753   */\n      tag_183\n        /* \"#utility.yul\":4745:4752   */\n      dup9\n        /* \"#utility.yul\":4736:4742   */\n      dup3\n        /* \"#utility.yul\":4725:4734   */\n      dup10\n        /* \"#utility.yul\":4721:4743   */\n      add\n        /* \"#utility.yul\":4701:4753   */\n      tag_110\n      jump\t// in\n    tag_183:\n        /* \"#utility.yul\":4691:4753   */\n      swap2\n      pop\n        /* \"#utility.yul\":4645:4763   */\n      pop\n        /* \"#utility.yul\":3869:4770   */\n      swap3\n      swap6\n      pop\n      swap3\n      swap6\n      swap1\n      swap4\n      pop\n      jump\t// out\n        /* \"#utility.yul\":4776:4894   */\n    tag_111:\n        /* \"#utility.yul\":4863:4887   */\n      tag_185\n        /* \"#utility.yul\":4881:4886   */\n      dup2\n        /* \"#utility.yul\":4863:4887   */\n      tag_92\n      jump\t// in\n    tag_185:\n        /* \"#utility.yul\":4858:4861   */\n      dup3\n        /* \"#utility.yul\":4851:4888   */\n      mstore\n        /* \"#utility.yul\":4776:4894   */\n      pop\n      pop\n      jump\t// out\n        /* \"#utility.yul\":4900:5122   */\n    tag_35:\n        /* \"#utility.yul\":4993:4997   */\n      0x00\n        /* \"#utility.yul\":5031:5033   */\n      0x20\n        /* \"#utility.yul\":5020:5029   */\n      dup3\n        /* \"#utility.yul\":5016:5034   */\n      add\n        /* \"#utility.yul\":5008:5034   */\n      swap1\n      pop\n        /* \"#utility.yul\":5044:5115   */\n      tag_187\n        /* \"#utility.yul\":5112:5113   */\n      0x00\n        /* \"#utility.yul\":5101:5110   */\n      dup4\n        /* \"#utility.yul\":5097:5114   */\n      add\n        /* \"#utility.yul\":5088:5094   */\n      dup5\n        /* \"#utility.yul\":5044:5115   */\n      tag_111\n      jump\t// in\n    tag_187:\n        /* \"#utility.yul\":4900:5122   */\n      swap3\n      swap2\n      pop\n      pop\n      jump\t// out\n        /* \"#utility.yul\":5128:5297   */\n    tag_112:\n        /* \"#utility.yul\":5212:5223   */\n      0x00\n        /* \"#utility.yul\":5246:5252   */\n      dup3\n        /* \"#utility.yul\":5241:5244   */\n      dup3\n        /* \"#utility.yul\":5234:5253   */\n      mstore\n        /* \"#utility.yul\":5286:5290   */\n      0x20\n        /* \"#utility.yul\":5281:5284   */\n      dup3\n        /* \"#utility.yul\":5277:5291   */\n      add\n        /* \"#utility.yul\":5262:5291   */\n      swap1\n      pop\n        /* \"#utility.yul\":5128:5297   */\n      swap3\n      swap2\n      pop\n      pop\n      jump\t// out\n        /* \"#utility.yul\":5303:5479   */\n    tag_113:\n        /* \"#utility.yul\":5443:5471   */\n      0x4f7261636c65436f6e73756d65723a206e6f74206f7261636c65000000000000\n        /* \"#utility.yul\":5439:5440   */\n      0x00\n        /* \"#utility.yul\":5431:5437   */\n      dup3\n        /* \"#utility.yul\":5427:5441   */\n      add\n        /* \"#utility.yul\":5420:5472   */\n      mstore\n        /* \"#utility.yul\":5303:5479   */\n      pop\n      jump\t// out\n        /* \"#utility.yul\":5485:5851   */\n    tag_114:\n        /* \"#utility.yul\":5627:5630   */\n      0x00\n        /* \"#utility.yul\":5648:5715   */\n      tag_191\n        /* \"#utility.yul\":5712:5714   */\n      0x1a\n        /* \"#utility.yul\":5707:5710   */\n      dup4\n        /* \"#utility.yul\":5648:5715   */\n      tag_112\n      jump\t// in\n    tag_191:\n        /* \"#utility.yul\":5641:5715   */\n      swap2\n      pop\n        /* \"#utility.yul\":5724:5817   */\n      tag_192\n        /* \"#utility.yul\":5813:5816   */\n      dup3\n        /* \"#utility.yul\":5724:5817   */\n      tag_113\n      jump\t// in\n    tag_192:\n        /* \"#utility.yul\":5842:5844   */\n      0x20\n        /* \"#utility.yul\":5837:5840   */\n      dup3\n        /* \"#utility.yul\":5833:5845   */\n      add\n        /* \"#utility.yul\":5826:5845   */\n      swap1\n      pop\n        /* \"#utility.yul\":5485:5851   */\n      swap2\n      swap1\n      pop\n      jump\t// out\n        /* \"#utility.yul\":5857:6276   */\n    tag_57:\n        /* \"#utility.yul\":6023:6027   */\n      0x00\n        /* \"#utility.yul\":6061:6063   */\n      0x20\n        /* \"#utility.yul\":6050:6059   */\n      dup3\n        /* \"#utility.yul\":6046:6064   */\n      add\n        /* \"#utility.yul\":6038:6064   */\n      swap1\n      pop\n        /* \"#utility.yul\":6110:6119   */\n      dup2\n        /* \"#utility.yul\":6104:6108   */\n      dup2\n        /* \"#utility.yul\":6100:6120   */\n      sub\n        /* \"#utility.yul\":6096:6097   */\n      0x00\n        /* \"#utility.yul\":6085:6094   */\n      dup4\n        /* \"#utility.yul\":6081:6098   */\n      add\n        /* \"#utility.yul\":6074:6121   */\n      mstore\n        /* \"#utility.yul\":6138:6269   */\n      tag_194\n        /* \"#utility.yul\":6264:6268   */\n      dup2\n        /* \"#utility.yul\":6138:6269   */\n      tag_114\n      jump\t// in\n    tag_194:\n        /* \"#utility.yul\":6130:6269   */\n      swap1\n      pop\n        /* \"#utility.yul\":5857:6276   */\n      swap2\n      swap1\n      pop\n      jump\t// out\n        /* \"#utility.yul\":6282:6456   */\n    tag_115:\n        /* \"#utility.yul\":6422:6448   */\n      0x4f7261636c65436f6e73756d65723a2077616c6c65743d300000000000000000\n        /* \"#utility.yul\":6418:6419   */\n      0x00\n        /* \"#utility.yul\":6410:6416   */\n      dup3\n        /* \"#utility.yul\":6406:6420   */\n      add\n        /* \"#utility.yul\":6399:6449   */\n      mstore\n        /* \"#utility.yul\":6282:6456   */\n      pop\n      jump\t// out\n        /* \"#utility.yul\":6462:6828   */\n    tag_116:\n        /* \"#utility.yul\":6604:6607   */\n      0x00\n        /* \"#utility.yul\":6625:6692   */\n      tag_197\n        /* \"#utility.yul\":6689:6691   */\n      0x18\n        /* \"#utility.yul\":6684:6687   */\n      dup4\n        /* \"#utility.yul\":6625:6692   */\n      tag_112\n      jump\t// in\n    tag_197:\n        /* \"#utility.yul\":6618:6692   */\n      swap2\n      pop\n        /* \"#utility.yul\":6701:6794   */\n      tag_198\n        /* \"#utility.yul\":6790:6793   */\n      dup3\n        /* \"#utility.yul\":6701:6794   */\n      tag_115\n      jump\t// in\n    tag_198:\n        /* \"#utility.yul\":6819:6821   */\n      0x20\n        /* \"#utility.yul\":6814:6817   */\n      dup3\n        /* \"#utility.yul\":6810:6822   */\n      add\n        /* \"#utility.yul\":6803:6822   */\n      swap1\n      pop\n        /* \"#utility.yul\":6462:6828   */\n      swap2\n      swap1\n      pop\n      jump\t// out\n        /* \"#utility.yul\":6834:7253   */\n    tag_61:\n        /* \"#utility.yul\":7000:7004   */\n      0x00\n        /* \"#utility.yul\":7038:7040   */\n      0x20\n        /* \"#utility.yul\":7027:7036   */\n      dup3\n        /* \"#utility.yul\":7023:7041   */\n      add\n        /* \"#utility.yul\":7015:7041   */\n      swap1\n      pop\n        /* \"#utility.yul\":7087:7096   */\n      dup2\n        /* \"#utility.yul\":7081:7085   */\n      dup2\n        /* \"#utility.yul\":7077:7097   */\n      sub\n        /* \"#utility.yul\":7073:7074   */\n      0x00\n        /* \"#utility.yul\":7062:7071   */\n      dup4\n        /* \"#utility.yul\":7058:7075   */\n      add\n        /* \"#utility.yul\":7051:7098   */\n      mstore\n        /* \"#utility.yul\":7115:7246   */\n      tag_200\n        /* \"#utility.yul\":7241:7245   */\n      dup2\n        /* \"#utility.yul\":7115:7246   */\n      tag_116\n      jump\t// in\n    tag_200:\n        /* \"#utility.yul\":7107:7246   */\n      swap1\n      pop\n        /* \"#utility.yul\":6834:7253   */\n      swap2\n      swap1\n      pop\n      jump\t// out\n        /* \"#utility.yul\":7259:7433   */\n    tag_117:\n        /* \"#utility.yul\":7399:7425   */\n      0x4f7261636c65436f6e73756d65723a206964486173683d300000000000000000\n        /* \"#utility.yul\":7395:7396   */\n      0x00\n        /* \"#utility.yul\":7387:7393   */\n      dup3\n        /* \"#utility.yul\":7383:7397   */\n      add\n        /* \"#utility.yul\":7376:7426   */\n      mstore\n        /* \"#utility.yul\":7259:7433   */\n      pop\n      jump\t// out\n        /* \"#utility.yul\":7439:7805   */\n    tag_118:\n        /* \"#utility.yul\":7581:7584   */\n      0x00\n        /* \"#utility.yul\":7602:7669   */\n      tag_203\n        /* \"#utility.yul\":7666:7668   */\n      0x18\n        /* \"#utility.yul\":7661:7664   */\n      dup4\n        /* \"#utility.yul\":7602:7669   */\n      tag_112\n      jump\t// in\n    tag_203:\n        /* \"#utility.yul\":7595:7669   */\n      swap2\n      pop\n        /* \"#utility.yul\":7678:7771   */\n      tag_204\n        /* \"#utility.yul\":7767:7770   */\n      dup3\n        /* \"#utility.yul\":7678:7771   */\n      tag_117\n      jump\t// in\n    tag_204:\n        /* \"#utility.yul\":7796:7798   */\n      0x20\n        /* \"#utility.yul\":7791:7794   */\n      dup3\n        /* \"#utility.yul\":7787:7799   */\n      add\n        /* \"#utility.yul\":7780:7799   */\n      swap1\n      pop\n        /* \"#utility.yul\":7439:7805   */\n      swap2\n      swap1\n      pop\n      jump\t// out\n        /* \"#utility.yul\":7811:8230   */\n    tag_64:\n        /* \"#utility.yul\":7977:7981   */\n      0x00\n        /* \"#utility.yul\":8015:8017   */\n      0x20\n        /* \"#utility.yul\":8004:8013   */\n      dup3\n        /* \"#utility.yul\":8000:8018   */\n      add\n        /* \"#utility.yul\":7992:8018   */\n      swap1\n      pop\n        /* \"#utility.yul\":8064:8073   */\n      dup2\n        /* \"#utility.yul\":8058:8062   */\n      dup2\n        /* \"#utility.yul\":8054:8074   */\n      sub\n        /* \"#utility.yul\":8050:8051   */\n      0x00\n        /* \"#utility.yul\":8039:8048   */\n      dup4\n        /* \"#utility.yul\":8035:8052   */\n      add\n        /* \"#utility.yul\":8028:8075   */\n      mstore\n        /* \"#utility.yul\":8092:8223   */\n      tag_206\n        /* \"#utility.yul\":8218:8222   */\n      dup2\n        /* \"#utility.yul\":8092:8223   */\n      tag_118\n      jump\t// in\n    tag_206:\n        /* \"#utility.yul\":8084:8223   */\n      swap1\n      pop\n        /* \"#utility.yul\":7811:8230   */\n      swap2\n      swap1\n      pop\n      jump\t// out\n        /* \"#utility.yul\":8236:8410   */\n    tag_119:\n        /* \"#utility.yul\":8376:8402   */\n      0x4f7261636c65436f6e73756d65723a206f7261636c653d300000000000000000\n        /* \"#utility.yul\":8372:8373   */\n      0x00\n        /* \"#utility.yul\":8364:8370   */\n      dup3\n        /* \"#utility.yul\":8360:8374   */\n      add\n        /* \"#utility.yul\":8353:8403   */\n      mstore\n        /* \"#utility.yul\":8236:8410   */\n      pop\n      jump\t// out\n        /* \"#utility.yul\":8416:8782   */\n    tag_120:\n        /* \"#utility.yul\":8558:8561   */\n      0x00\n        /* \"#utility.yul\":8579:8646   */\n      tag_209\n        /* \"#utility.yul\":8643:8645   */\n      0x18\n        /* \"#utility.yul\":8638:8641   */\n      dup4\n        /* \"#utility.yul\":8579:8646   */\n      tag_112\n      jump\t// in\n    tag_209:\n        /* \"#utility.yul\":8572:8646   */\n      swap2\n      pop\n        /* \"#utility.yul\":8655:8748   */\n      tag_210\n        /* \"#utility.yul\":8744:8747   */\n      dup3\n        /* \"#utility.yul\":8655:8748   */\n      tag_119\n      jump\t// in\n    tag_210:\n        /* \"#utility.yul\":8773:8775   */\n      0x20\n        /* \"#utility.yul\":8768:8771   */\n      dup3\n        /* \"#utility.yul\":8764:8776   */\n      add\n        /* \"#utility.yul\":8757:8776   */\n      swap1\n      pop\n        /* \"#utility.yul\":8416:8782   */\n      swap2\n      swap1\n      pop\n      jump\t// out\n        /* \"#utility.yul\":8788:9207   */\n    tag_71:\n        /* \"#utility.yul\":8954:8958   */\n      0x00\n        /* \"#utility.yul\":8992:8994   */\n      0x20\n        /* \"#utility.yul\":8981:8990   */\n      dup3\n        /* \"#utility.yul\":8977:8995   */\n      add\n        /* \"#utility.yul\":8969:8995   */\n      swap1\n      pop\n        /* \"#utility.yul\":9041:9050   */\n      dup2\n        /* \"#utility.yul\":9035:9039   */\n      dup2\n        /* \"#utility.yul\":9031:9051   */\n      sub\n        /* \"#utility.yul\":9027:9028   */\n      0x00\n        /* \"#utility.yul\":9016:9025   */\n      dup4\n        /* \"#utility.yul\":9012:9029   */\n      add\n        /* \"#utility.yul\":9005:9052   */\n      mstore\n        /* \"#utility.yul\":9069:9200   */\n      tag_212\n        /* \"#utility.yul\":9195:9199   */\n      dup2\n        /* \"#utility.yul\":9069:9200   */\n      tag_120\n      jump\t// in\n    tag_212:\n        /* \"#utility.yul\":9061:9200   */\n      swap1\n      pop\n        /* \"#utility.yul\":8788:9207   */\n      swap2\n      swap1\n      pop\n      jump\t// out\n\n    auxdata: 0xa26469706673582212209db8f99c83884d57a78c1b6a8735daf3cc496791c73fb017b58e3c52d57ca0bb64736f6c63430008140033\n}\n",
				"bytecode": {
					"linkReferences": {},
					"object": "608060405234801562000010575f80fd5b50604051620011fe380380620011fe8339818101604052810190620000369190620002f4565b335f73ffffffffffffffffffffffffffffffffffffffff168173ffffffffffffffffffffffffffffffffffffffff1603620000aa575f6040517f1e4fbdf7000000000000000000000000000000000000000000000000000000008152600401620000a1919062000335565b60405180910390fd5b620000bb81620001ce60201b60201c565b505f73ffffffffffffffffffffffffffffffffffffffff168173ffffffffffffffffffffffffffffffffffffffff16036200012d576040517f08c379a00000000000000000000000000000000000000000000000000000000081526004016200012490620003ae565b60405180910390fd5b8060015f6101000a81548173ffffffffffffffffffffffffffffffffffffffff021916908373ffffffffffffffffffffffffffffffffffffffff1602179055508073ffffffffffffffffffffffffffffffffffffffff165f73ffffffffffffffffffffffffffffffffffffffff167f078c3b417dadf69374a59793b829c52001247130433427049317bde56607b1b760405160405180910390a350620003ce565b5f805f9054906101000a900473ffffffffffffffffffffffffffffffffffffffff169050815f806101000a81548173ffffffffffffffffffffffffffffffffffffffff021916908373ffffffffffffffffffffffffffffffffffffffff1602179055508173ffffffffffffffffffffffffffffffffffffffff168173ffffffffffffffffffffffffffffffffffffffff167f8be0079c531659141344cd1fd0a4f28419497f9722a3daafe3b4186f6b6457e060405160405180910390a35050565b5f80fd5b5f73ffffffffffffffffffffffffffffffffffffffff82169050919050565b5f620002be8262000293565b9050919050565b620002d081620002b2565b8114620002db575f80fd5b50565b5f81519050620002ee81620002c5565b92915050565b5f602082840312156200030c576200030b6200028f565b5b5f6200031b84828501620002de565b91505092915050565b6200032f81620002b2565b82525050565b5f6020820190506200034a5f83018462000324565b92915050565b5f82825260208201905092915050565b7f4f7261636c65436f6e73756d65723a206f7261636c653d3000000000000000005f82015250565b5f6200039660188362000350565b9150620003a38262000360565b602082019050919050565b5f6020820190508181035f830152620003c78162000388565b9050919050565b610e2280620003dc5f395ff3fe608060405234801561000f575f80fd5b5060043610610086575f3560e01c80637adbf973116100595780637adbf973146101135780637dc0d1d01461012f5780638da5cb5b1461014d578063f2fde38b1461016b57610086565b80632fea7b811461008a57806366e305fd146100bd578063715018a6146100ed5780637966e915146100f7575b5f80fd5b6100a4600480360381019061009f91906109fc565b610187565b6040516100b49493929190610a99565b60405180910390f35b6100d760048036038101906100d291906109fc565b610274565b6040516100e49190610adc565b60405180910390f35b6100f56103a7565b005b610111600480360381019061010c9190610b9d565b6103ba565b005b61012d600480360381019061012891906109fc565b610646565b005b61013761077f565b6040516101449190610c23565b60405180910390f35b6101556107a4565b6040516101629190610c23565b60405180910390f35b610185600480360381019061018091906109fc565b6107cb565b005b5f805f805f60025f8773ffffffffffffffffffffffffffffffffffffffff1673ffffffffffffffffffffffffffffffffffffffff1681526020019081526020015f206040518060800160405290815f8201548152602001600182015f9054906101000a900463ffffffff1663ffffffff1663ffffffff1681526020016001820160049054906101000a900460ff161515151581526020016001820160059054906101000a900467ffffffffffffffff1667ffffffffffffffff1667ffffffffffffffff16815250509050805f01518160200151826040015183606001519450945094509450509193509193565b5f8060025f8473ffffffffffffffffffffffffffffffffffffffff1673ffffffffffffffffffffffffffffffffffffffff1681526020019081526020015f206040518060800160405290815f8201548152602001600182015f9054906101000a900463ffffffff1663ffffffff1663ffffffff1681526020016001820160049054906101000a900460ff161515151581526020016001820160059054906101000a900467ffffffffffffffff1667ffffffffffffffff1667ffffffffffffffff168152505090505f801b815f015103610350575f9150506103a2565b806040015115610363575f9150506103a2565b5f816060015167ffffffffffffffff161415801561038e5750806060015167ffffffffffffffff1642115b1561039c575f9150506103a2565b60019150505b919050565b6103af61084f565b6103b85f6108d6565b565b60015f9054906101000a900473ffffffffffffffffffffffffffffffffffffffff1673ffffffffffffffffffffffffffffffffffffffff163373ffffffffffffffffffffffffffffffffffffffff1614610449576040517f08c379a000000000000000000000000000000000000000000000000000000000815260040161044090610c96565b60405180910390fd5b5f73ffffffffffffffffffffffffffffffffffffffff168573ffffffffffffffffffffffffffffffffffffffff16036104b7576040517f08c379a00000000000000000000000000000000000000000000000000000000081526004016104ae90610cfe565b60405180910390fd5b5f801b84036104fb576040517f08c379a00000000000000000000000000000000000000000000000000000000081526004016104f290610d66565b60405180910390fd5b60405180608001604052808581526020018463ffffffff16815260200183151581526020018267ffffffffffffffff1681525060025f8773ffffffffffffffffffffffffffffffffffffffff1673ffffffffffffffffffffffffffffffffffffffff1681526020019081526020015f205f820151815f01556020820151816001015f6101000a81548163ffffffff021916908363ffffffff16021790555060408201518160010160046101000a81548160ff02191690831515021790555060608201518160010160056101000a81548167ffffffffffffffff021916908367ffffffffffffffff1602179055509050508473ffffffffffffffffffffffffffffffffffffffff167f994ef2a9461b7c1cb2734a45242b9d6cbf923f0fa1fc65ebde80473ed7f191b2858585856040516106379493929190610a99565b60405180910390a25050505050565b61064e61084f565b5f73ffffffffffffffffffffffffffffffffffffffff168173ffffffffffffffffffffffffffffffffffffffff16036106bc576040517f08c379a00000000000000000000000000000000000000000000000000000000081526004016106b390610dce565b60405180910390fd5b5f60015f9054906101000a900473ffffffffffffffffffffffffffffffffffffffff1690508160015f6101000a81548173ffffffffffffffffffffffffffffffffffffffff021916908373ffffffffffffffffffffffffffffffffffffffff1602179055508173ffffffffffffffffffffffffffffffffffffffff168173ffffffffffffffffffffffffffffffffffffffff167f078c3b417dadf69374a59793b829c52001247130433427049317bde56607b1b760405160405180910390a35050565b60015f9054906101000a900473ffffffffffffffffffffffffffffffffffffffff1681565b5f805f9054906101000a900473ffffffffffffffffffffffffffffffffffffffff16905090565b6107d361084f565b5f73ffffffffffffffffffffffffffffffffffffffff168173ffffffffffffffffffffffffffffffffffffffff1603610843575f6040517f1e4fbdf700000000000000000000000000000000000000000000000000000000815260040161083a9190610c23565b60405180910390fd5b61084c816108d6565b50565b610857610997565b73ffffffffffffffffffffffffffffffffffffffff166108756107a4565b73ffffffffffffffffffffffffffffffffffffffff16146108d457610898610997565b6040517f118cdaa70000000000000000000000000000000000000000000000000000000081526004016108cb9190610c23565b60405180910390fd5b565b5f805f9054906101000a900473ffffffffffffffffffffffffffffffffffffffff169050815f806101000a81548173ffffffffffffffffffffffffffffffffffffffff021916908373ffffffffffffffffffffffffffffffffffffffff1602179055508173ffffffffffffffffffffffffffffffffffffffff168173ffffffffffffffffffffffffffffffffffffffff167f8be0079c531659141344cd1fd0a4f28419497f9722a3daafe3b4186f6b6457e060405160405180910390a35050565b5f33905090565b5f80fd5b5f73ffffffffffffffffffffffffffffffffffffffff82169050919050565b5f6109cb826109a2565b9050919050565b6109db816109c1565b81146109e5575f80fd5b50565b5f813590506109f6816109d2565b92915050565b5f60208284031215610a1157610a1061099e565b5b5f610a1e848285016109e8565b91505092915050565b5f819050919050565b610a3981610a27565b82525050565b5f63ffffffff82169050919050565b610a5781610a3f565b82525050565b5f8115159050919050565b610a7181610a5d565b82525050565b5f67ffffffffffffffff82169050919050565b610a9381610a77565b82525050565b5f608082019050610aac5f830187610a30565b610ab96020830186610a4e565b610ac66040830185610a68565b610ad36060830184610a8a565b95945050505050565b5f602082019050610aef5f830184610a68565b92915050565b610afe81610a27565b8114610b08575f80fd5b50565b5f81359050610b1981610af5565b92915050565b610b2881610a3f565b8114610b32575f80fd5b50565b5f81359050610b4381610b1f565b92915050565b610b5281610a5d565b8114610b5c575f80fd5b50565b5f81359050610b6d81610b49565b92915050565b610b7c81610a77565b8114610b86575f80fd5b50565b5f81359050610b9781610b73565b92915050565b5f805f805f60a08688031215610bb657610bb561099e565b5b5f610bc3888289016109e8565b9550506020610bd488828901610b0b565b9450506040610be588828901610b35565b9350506060610bf688828901610b5f565b9250506080610c0788828901610b89565b9150509295509295909350565b610c1d816109c1565b82525050565b5f602082019050610c365f830184610c14565b92915050565b5f82825260208201905092915050565b7f4f7261636c65436f6e73756d65723a206e6f74206f7261636c650000000000005f82015250565b5f610c80601a83610c3c565b9150610c8b82610c4c565b602082019050919050565b5f6020820190508181035f830152610cad81610c74565b9050919050565b7f4f7261636c65436f6e73756d65723a2077616c6c65743d3000000000000000005f82015250565b5f610ce8601883610c3c565b9150610cf382610cb4565b602082019050919050565b5f6020820190508181035f830152610d1581610cdc565b9050919050565b7f4f7261636c65436f6e73756d65723a206964486173683d3000000000000000005f82015250565b5f610d50601883610c3c565b9150610d5b82610d1c565b602082019050919050565b5f6020820190508181035f830152610d7d81610d44565b9050919050565b7f4f7261636c65436f6e73756d65723a206f7261636c653d3000000000000000005f82015250565b5f610db8601883610c3c565b9150610dc382610d84565b602082019050919050565b5f6020820190508181035f830152610de581610dac565b905091905056fea26469706673582212209db8f99c83884d57a78c1b6a8735daf3cc496791c73fb017b58e3c52d57ca0bb64736f6c63430008140033",
					"opcodes": "PUSH1 0x80 PUSH1 0x40 MSTORE CALLVALUE DUP1 ISZERO PUSH3 0x10 JUMPI PUSH0 DUP1 REVERT JUMPDEST POP PUSH1 0x40 MLOAD PUSH3 0x11FE CODESIZE SUB DUP1 PUSH3 0x11FE DUP4 CODECOPY DUP2 DUP2 ADD PUSH1 0x40 MSTORE DUP2 ADD SWAP1 PUSH3 0x36 SWAP2 SWAP1 PUSH3 0x2F4 JUMP JUMPDEST CALLER PUSH0 PUSH20 0xFFFFFFFFFFFFFFFFFFFFFFFFFFFFFFFFFFFFFFFF AND DUP2 PUSH20 0xFFFFFFFFFFFFFFFFFFFFFFFFFFFFFFFFFFFFFFFF AND SUB PUSH3 0xAA JUMPI PUSH0 PUSH1 0x40 MLOAD PUSH32 0x1E4FBDF700000000000000000000000000000000000000000000000000000000 DUP2 MSTORE PUSH1 0x4 ADD PUSH3 0xA1 SWAP2 SWAP1 PUSH3 0x335 JUMP JUMPDEST PUSH1 0x40 MLOAD DUP1 SWAP2 SUB SWAP1 REVERT JUMPDEST PUSH3 0xBB DUP2 PUSH3 0x1CE PUSH1 0x20 SHL PUSH1 0x20 SHR JUMP JUMPDEST POP PUSH0 PUSH20 0xFFFFFFFFFFFFFFFFFFFFFFFFFFFFFFFFFFFFFFFF AND DUP2 PUSH20 0xFFFFFFFFFFFFFFFFFFFFFFFFFFFFFFFFFFFFFFFF AND SUB PUSH3 0x12D JUMPI PUSH1 0x40 MLOAD PUSH32 0x8C379A000000000000000000000000000000000000000000000000000000000 DUP2 MSTORE PUSH1 0x4 ADD PUSH3 0x124 SWAP1 PUSH3 0x3AE JUMP JUMPDEST PUSH1 0x40 MLOAD DUP1 SWAP2 SUB SWAP1 REVERT JUMPDEST DUP1 PUSH1 0x1 PUSH0 PUSH2 0x100 EXP DUP2 SLOAD DUP2 PUSH20 0xFFFFFFFFFFFFFFFFFFFFFFFFFFFFFFFFFFFFFFFF MUL NOT AND SWAP1 DUP4 PUSH20 0xFFFFFFFFFFFFFFFFFFFFFFFFFFFFFFFFFFFFFFFF AND MUL OR SWAP1 SSTORE POP DUP1 PUSH20 0xFFFFFFFFFFFFFFFFFFFFFFFFFFFFFFFFFFFFFFFF AND PUSH0 PUSH20 0xFFFFFFFFFFFFFFFFFFFFFFFFFFFFFFFFFFFFFFFF AND PUSH32 0x78C3B417DADF69374A59793B829C52001247130433427049317BDE56607B1B7 PUSH1 0x40 MLOAD PUSH1 0x40 MLOAD DUP1 SWAP2 SUB SWAP1 LOG3 POP PUSH3 0x3CE JUMP JUMPDEST PUSH0 DUP1 PUSH0 SWAP1 SLOAD SWAP1 PUSH2 0x100 EXP SWAP1 DIV PUSH20 0xFFFFFFFFFFFFFFFFFFFFFFFFFFFFFFFFFFFFFFFF AND SWAP1 POP DUP2 PUSH0 DUP1 PUSH2 0x100 EXP DUP2 SLOAD DUP2 PUSH20 0xFFFFFFFFFFFFFFFFFFFFFFFFFFFFFFFFFFFFFFFF MUL NOT AND SWAP1 DUP4 PUSH20 0xFFFFFFFFFFFFFFFFFFFFFFFFFFFFFFFFFFFFFFFF AND MUL OR SWAP1 SSTORE POP DUP2 PUSH20 0xFFFFFFFFFFFFFFFFFFFFFFFFFFFFFFFFFFFFFFFF AND DUP2 PUSH20 0xFFFFFFFFFFFFFFFFFFFFFFFFFFFFFFFFFFFFFFFF AND PUSH32 0x8BE0079C531659141344CD1FD0A4F28419497F9722A3DAAFE3B4186F6B6457E0 PUSH1 0x40 MLOAD PUSH1 0x40 MLOAD DUP1 SWAP2 SUB SWAP1 LOG3 POP POP JUMP JUMPDEST PUSH0 DUP1 REVERT JUMPDEST PUSH0 PUSH20 0xFFFFFFFFFFFFFFFFFFFFFFFFFFFFFFFFFFFFFFFF DUP3 AND SWAP1 POP SWAP2 SWAP1 POP JUMP JUMPDEST PUSH0 PUSH3 0x2BE DUP3 PUSH3 0x293 JUMP JUMPDEST SWAP1 POP SWAP2 SWAP1 POP JUMP JUMPDEST PUSH3 0x2D0 DUP2 PUSH3 0x2B2 JUMP JUMPDEST DUP2 EQ PUSH3 0x2DB JUMPI PUSH0 DUP1 REVERT JUMPDEST POP JUMP JUMPDEST PUSH0 DUP2 MLOAD SWAP1 POP PUSH3 0x2EE DUP2 PUSH3 0x2C5 JUMP JUMPDEST SWAP3 SWAP2 POP POP JUMP JUMPDEST PUSH0 PUSH1 0x20 DUP3 DUP5 SUB SLT ISZERO PUSH3 0x30C JUMPI PUSH3 0x30B PUSH3 0x28F JUMP JUMPDEST JUMPDEST PUSH0 PUSH3 0x31B DUP5 DUP3 DUP6 ADD PUSH3 0x2DE JUMP JUMPDEST SWAP2 POP POP SWAP3 SWAP2 POP POP JUMP JUMPDEST PUSH3 0x32F DUP2 PUSH3 0x2B2 JUMP JUMPDEST DUP3 MSTORE POP POP JUMP JUMPDEST PUSH0 PUSH1 0x20 DUP3 ADD SWAP1 POP PUSH3 0x34A PUSH0 DUP4 ADD DUP5 PUSH3 0x324 JUMP JUMPDEST SWAP3 SWAP2 POP POP JUMP JUMPDEST PUSH0 DUP3 DUP3 MSTORE PUSH1 0x20 DUP3 ADD SWAP1 POP SWAP3 SWAP2 POP POP JUMP JUMPDEST PUSH32 0x4F7261636C65436F6E73756D65723A206F7261636C653D300000000000000000 PUSH0 DUP3 ADD MSTORE POP JUMP JUMPDEST PUSH0 PUSH3 0x396 PUSH1 0x18 DUP4 PUSH3 0x350 JUMP JUMPDEST SWAP2 POP PUSH3 0x3A3 DUP3 PUSH3 0x360 JUMP JUMPDEST PUSH1 0x20 DUP3 ADD SWAP1 POP SWAP2 SWAP1 POP JUMP JUMPDEST PUSH0 PUSH1 0x20 DUP3 ADD SWAP1 POP DUP2 DUP2 SUB PUSH0 DUP4 ADD MSTORE PUSH3 0x3C7 DUP2 PUSH3 0x388 JUMP JUMPDEST SWAP1 POP SWAP2 SWAP1 POP JUMP JUMPDEST PUSH2 0xE22 DUP1 PUSH3 0x3DC PUSH0 CODECOPY PUSH0 RETURN INVALID PUSH1 0x80 PUSH1 0x40 MSTORE CALLVALUE DUP1 ISZERO PUSH2 0xF JUMPI PUSH0 DUP1 REVERT JUMPDEST POP PUSH1 0x4 CALLDATASIZE LT PUSH2 0x86 JUMPI PUSH0 CALLDATALOAD PUSH1 0xE0 SHR DUP1 PUSH4 0x7ADBF973 GT PUSH2 0x59 JUMPI DUP1 PUSH4 0x7ADBF973 EQ PUSH2 0x113 JUMPI DUP1 PUSH4 0x7DC0D1D0 EQ PUSH2 0x12F JUMPI DUP1 PUSH4 0x8DA5CB5B EQ PUSH2 0x14D JUMPI DUP1 PUSH4 0xF2FDE38B EQ PUSH2 0x16B JUMPI PUSH2 0x86 JUMP JUMPDEST DUP1 PUSH4 0x2FEA7B81 EQ PUSH2 0x8A JUMPI DUP1 PUSH4 0x66E305FD EQ PUSH2 0xBD JUMPI DUP1 PUSH4 0x715018A6 EQ PUSH2 0xED JUMPI DUP1 PUSH4 0x7966E915 EQ PUSH2 0xF7 JUMPI JUMPDEST PUSH0 DUP1 REVERT JUMPDEST PUSH2 0xA4 PUSH1 0x4 DUP1 CALLDATASIZE SUB DUP2 ADD SWAP1 PUSH2 0x9F SWAP2 SWAP1 PUSH2 0x9FC JUMP JUMPDEST PUSH2 0x187 JUMP JUMPDEST PUSH1 0x40 MLOAD PUSH2 0xB4 SWAP5 SWAP4 SWAP3 SWAP2 SWAP1 PUSH2 0xA99 JUMP JUMPDEST PUSH1 0x40 MLOAD DUP1 SWAP2 SUB SWAP1 RETURN JUMPDEST PUSH2 0xD7 PUSH1 0x4 DUP1 CALLDATASIZE SUB DUP2 ADD SWAP1 PUSH2 0xD2 SWAP2 SWAP1 PUSH2 0x9FC JUMP JUMPDEST PUSH2 0x274 JUMP JUMPDEST PUSH1 0x40 MLOAD PUSH2 0xE4 SWAP2 SWAP1 PUSH2 0xADC JUMP JUMPDEST PUSH1 0x40 MLOAD DUP1 SWAP2 SUB SWAP1 RETURN JUMPDEST PUSH2 0xF5 PUSH2 0x3A7 JUMP JUMPDEST STOP JUMPDEST PUSH2 0x111 PUSH1 0x4 DUP1 CALLDATASIZE SUB DUP2 ADD SWAP1 PUSH2 0x10C SWAP2 SWAP1 PUSH2 0xB9D JUMP JUMPDEST PUSH2 0x3BA JUMP JUMPDEST STOP JUMPDEST PUSH2 0x12D PUSH1 0x4 DUP1 CALLDATASIZE SUB DUP2 ADD SWAP1 PUSH2 0x128 SWAP2 SWAP1 PUSH2 0x9FC JUMP JUMPDEST PUSH2 0x646 JUMP JUMPDEST STOP JUMPDEST PUSH2 0x137 PUSH2 0x77F JUMP JUMPDEST PUSH1 0x40 MLOAD PUSH2 0x144 SWAP2 SWAP1 PUSH2 0xC23 JUMP JUMPDEST PUSH1 0x40 MLOAD DUP1 SWAP2 SUB SWAP1 RETURN JUMPDEST PUSH2 0x155 PUSH2 0x7A4 JUMP JUMPDEST PUSH1 0x40 MLOAD PUSH2 0x162 SWAP2 SWAP1 PUSH2 0xC23 JUMP JUMPDEST PUSH1 0x40 MLOAD DUP1 SWAP2 SUB SWAP1 RETURN JUMPDEST PUSH2 0x185 PUSH1 0x4 DUP1 CALLDATASIZE SUB DUP2 ADD SWAP1 PUSH2 0x180 SWAP2 SWAP1 PUSH2 0x9FC JUMP JUMPDEST PUSH2 0x7CB JUMP JUMPDEST STOP JUMPDEST PUSH0 DUP1 PUSH0 DUP1 PUSH0 PUSH1 0x2 PUSH0 DUP8 PUSH20 0xFFFFFFFFFFFFFFFFFFFFFFFFFFFFFFFFFFFFFFFF AND PUSH20 0xFFFFFFFFFFFFFFFFFFFFFFFFFFFFFFFFFFFFFFFF AND DUP2 MSTORE PUSH1 0x20 ADD SWAP1 DUP2 MSTORE PUSH1 0x20 ADD PUSH0 KECCAK256 PUSH1 0x40 MLOAD DUP1 PUSH1 0x80 ADD PUSH1 0x40 MSTORE SWAP1 DUP2 PUSH0 DUP3 ADD SLOAD DUP2 MSTORE PUSH1 0x20 ADD PUSH1 0x1 DUP3 ADD PUSH0 SWAP1 SLOAD SWAP1 PUSH2 0x100 EXP SWAP1 DIV PUSH4 0xFFFFFFFF AND PUSH4 0xFFFFFFFF AND PUSH4 0xFFFFFFFF AND DUP2 MSTORE PUSH1 0x20 ADD PUSH1 0x1 DUP3 ADD PUSH1 0x4 SWAP1 SLOAD SWAP1 PUSH2 0x100 EXP SWAP1 DIV PUSH1 0xFF AND ISZERO ISZERO ISZERO ISZERO DUP2 MSTORE PUSH1 0x20 ADD PUSH1 0x1 DUP3 ADD PUSH1 0x5 SWAP1 SLOAD SWAP1 PUSH2 0x100 EXP SWAP1 DIV PUSH8 0xFFFFFFFFFFFFFFFF AND PUSH8 0xFFFFFFFFFFFFFFFF AND PUSH8 0xFFFFFFFFFFFFFFFF AND DUP2 MSTORE POP POP SWAP1 POP DUP1 PUSH0 ADD MLOAD DUP2 PUSH1 0x20 ADD MLOAD DUP3 PUSH1 0x40 ADD MLOAD DUP4 PUSH1 0x60 ADD MLOAD SWAP5 POP SWAP5 POP SWAP5 POP SWAP5 POP POP SWAP2 SWAP4 POP SWAP2 SWAP4 JUMP JUMPDEST PUSH0 DUP1 PUSH1 0x2 PUSH0 DUP5 PUSH20 0xFFFFFFFFFFFFFFFFFFFFFFFFFFFFFFFFFFFFFFFF AND PUSH20 0xFFFFFFFFFFFFFFFFFFFFFFFFFFFFFFFFFFFFFFFF AND DUP2 MSTORE PUSH1 0x20 ADD SWAP1 DUP2 MSTORE PUSH1 0x20 ADD PUSH0 KECCAK256 PUSH1 0x40 MLOAD DUP1 PUSH1 0x80 ADD PUSH1 0x40 MSTORE SWAP1 DUP2 PUSH0 DUP3 ADD SLOAD DUP2 MSTORE PUSH1 0x20 ADD PUSH1 0x1 DUP3 ADD PUSH0 SWAP1 SLOAD SWAP1 PUSH2 0x100 EXP SWAP1 DIV PUSH4 0xFFFFFFFF AND PUSH4 0xFFFFFFFF AND PUSH4 0xFFFFFFFF AND DUP2 MSTORE PUSH1 0x20 ADD PUSH1 0x1 DUP3 ADD PUSH1 0x4 SWAP1 SLOAD SWAP1 PUSH2 0x100 EXP SWAP1 DIV PUSH1 0xFF AND ISZERO ISZERO ISZERO ISZERO DUP2 MSTORE PUSH1 0x20 ADD PUSH1 0x1 DUP3 ADD PUSH1 0x5 SWAP1 SLOAD SWAP1 PUSH2 0x100 EXP SWAP1 DIV PUSH8 0xFFFFFFFFFFFFFFFF AND PUSH8 0xFFFFFFFFFFFFFFFF AND PUSH8 0xFFFFFFFFFFFFFFFF AND DUP2 MSTORE POP POP SWAP1 POP PUSH0 DUP1 SHL DUP2 PUSH0 ADD MLOAD SUB PUSH2 0x350 JUMPI PUSH0 SWAP2 POP POP PUSH2 0x3A2 JUMP JUMPDEST DUP1 PUSH1 0x40 ADD MLOAD ISZERO PUSH2 0x363 JUMPI PUSH0 SWAP2 POP POP PUSH2 0x3A2 JUMP JUMPDEST PUSH0 DUP2 PUSH1 0x60 ADD MLOAD PUSH8 0xFFFFFFFFFFFFFFFF AND EQ ISZERO DUP1 ISZERO PUSH2 0x38E JUMPI POP DUP1 PUSH1 0x60 ADD MLOAD PUSH8 0xFFFFFFFFFFFFFFFF AND TIMESTAMP GT JUMPDEST ISZERO PUSH2 0x39C JUMPI PUSH0 SWAP2 POP POP PUSH2 0x3A2 JUMP JUMPDEST PUSH1 0x1 SWAP2 POP POP JUMPDEST SWAP2 SWAP1 POP JUMP JUMPDEST PUSH2 0x3AF PUSH2 0x84F JUMP JUMPDEST PUSH2 0x3B8 PUSH0 PUSH2 0x8D6 JUMP JUMPDEST JUMP JUMPDEST PUSH1 0x1 PUSH0 SWAP1 SLOAD SWAP1 PUSH2 0x100 EXP SWAP1 DIV PUSH20 0xFFFFFFFFFFFFFFFFFFFFFFFFFFFFFFFFFFFFFFFF AND PUSH20 0xFFFFFFFFFFFFFFFFFFFFFFFFFFFFFFFFFFFFFFFF AND CALLER PUSH20 0xFFFFFFFFFFFFFFFFFFFFFFFFFFFFFFFFFFFFFFFF AND EQ PUSH2 0x449 JUMPI PUSH1 0x40 MLOAD PUSH32 0x8C379A000000000000000000000000000000000000000000000000000000000 DUP2 MSTORE PUSH1 0x4 ADD PUSH2 0x440 SWAP1 PUSH2 0xC96 JUMP JUMPDEST PUSH1 0x40 MLOAD DUP1 SWAP2 SUB SWAP1 REVERT JUMPDEST PUSH0 PUSH20 0xFFFFFFFFFFFFFFFFFFFFFFFFFFFFFFFFFFFFFFFF AND DUP6 PUSH20 0xFFFFFFFFFFFFFFFFFFFFFFFFFFFFFFFFFFFFFFFF AND SUB PUSH2 0x4B7 JUMPI PUSH1 0x40 MLOAD PUSH32 0x8C379A000000000000000000000000000000000000000000000000000000000 DUP2 MSTORE PUSH1 0x4 ADD PUSH2 0x4AE SWAP1 PUSH2 0xCFE JUMP JUMPDEST PUSH1 0x40 MLOAD DUP1 SWAP2 SUB SWAP1 REVERT JUMPDEST PUSH0 DUP1 SHL DUP5 SUB PUSH2 0x4FB JUMPI PUSH1 0x40 MLOAD PUSH32 0x8C379A000000000000000000000000000000000000000000000000000000000 DUP2 MSTORE PUSH1 0x4 ADD PUSH2 0x4F2 SWAP1 PUSH2 0xD66 JUMP JUMPDEST PUSH1 0x40 MLOAD DUP1 SWAP2 SUB SWAP1 REVERT JUMPDEST PUSH1 0x40 MLOAD DUP1 PUSH1 0x80 ADD PUSH1 0x40 MSTORE DUP1 DUP6 DUP2 MSTORE PUSH1 0x20 ADD DUP5 PUSH4 0xFFFFFFFF AND DUP2 MSTORE PUSH1 0x20 ADD DUP4 ISZERO ISZERO DUP2 MSTORE PUSH1 0x20 ADD DUP3 PUSH8 0xFFFFFFFFFFFFFFFF AND DUP2 MSTORE POP PUSH1 0x2 PUSH0 DUP8 PUSH20 0xFFFFFFFFFFFFFFFFFFFFFFFFFFFFFFFFFFFFFFFF AND PUSH20 0xFFFFFFFFFFFFFFFFFFFFFFFFFFFFFFFFFFFFFFFF AND DUP2 MSTORE PUSH1 0x20 ADD SWAP1 DUP2 MSTORE PUSH1 0x20 ADD PUSH0 KECCAK256 PUSH0 DUP3 ADD MLOAD DUP2 PUSH0 ADD SSTORE PUSH1 0x20 DUP3 ADD MLOAD DUP2 PUSH1 0x1 ADD PUSH0 PUSH2 0x100 EXP DUP2 SLOAD DUP2 PUSH4 0xFFFFFFFF MUL NOT AND SWAP1 DUP4 PUSH4 0xFFFFFFFF AND MUL OR SWAP1 SSTORE POP PUSH1 0x40 DUP3 ADD MLOAD DUP2 PUSH1 0x1 ADD PUSH1 0x4 PUSH2 0x100 EXP DUP2 SLOAD DUP2 PUSH1 0xFF MUL NOT AND SWAP1 DUP4 ISZERO ISZERO MUL OR SWAP1 SSTORE POP PUSH1 0x60 DUP3 ADD MLOAD DUP2 PUSH1 0x1 ADD PUSH1 0x5 PUSH2 0x100 EXP DUP2 SLOAD DUP2 PUSH8 0xFFFFFFFFFFFFFFFF MUL NOT AND SWAP1 DUP4 PUSH8 0xFFFFFFFFFFFFFFFF AND MUL OR SWAP1 SSTORE POP SWAP1 POP POP DUP5 PUSH20 0xFFFFFFFFFFFFFFFFFFFFFFFFFFFFFFFFFFFFFFFF AND PUSH32 0x994EF2A9461B7C1CB2734A45242B9D6CBF923F0FA1FC65EBDE80473ED7F191B2 DUP6 DUP6 DUP6 DUP6 PUSH1 0x40 MLOAD PUSH2 0x637 SWAP5 SWAP4 SWAP3 SWAP2 SWAP1 PUSH2 0xA99 JUMP JUMPDEST PUSH1 0x40 MLOAD DUP1 SWAP2 SUB SWAP1 LOG2 POP POP POP POP POP JUMP JUMPDEST PUSH2 0x64E PUSH2 0x84F JUMP JUMPDEST PUSH0 PUSH20 0xFFFFFFFFFFFFFFFFFFFFFFFFFFFFFFFFFFFFFFFF AND DUP2 PUSH20 0xFFFFFFFFFFFFFFFFFFFFFFFFFFFFFFFFFFFFFFFF AND SUB PUSH2 0x6BC JUMPI PUSH1 0x40 MLOAD PUSH32 0x8C379A000000000000000000000000000000000000000000000000000000000 DUP2 MSTORE PUSH1 0x4 ADD PUSH2 0x6B3 SWAP1 PUSH2 0xDCE JUMP JUMPDEST PUSH1 0x40 MLOAD DUP1 SWAP2 SUB SWAP1 REVERT JUMPDEST PUSH0 PUSH1 0x1 PUSH0 SWAP1 SLOAD SWAP1 PUSH2 0x100 EXP SWAP1 DIV PUSH20 0xFFFFFFFFFFFFFFFFFFFFFFFFFFFFFFFFFFFFFFFF AND SWAP1 POP DUP2 PUSH1 0x1 PUSH0 PUSH2 0x100 EXP DUP2 SLOAD DUP2 PUSH20 0xFFFFFFFFFFFFFFFFFFFFFFFFFFFFFFFFFFFFFFFF MUL NOT AND SWAP1 DUP4 PUSH20 0xFFFFFFFFFFFFFFFFFFFFFFFFFFFFFFFFFFFFFFFF AND MUL OR SWAP1 SSTORE POP DUP2 PUSH20 0xFFFFFFFFFFFFFFFFFFFFFFFFFFFFFFFFFFFFFFFF AND DUP2 PUSH20 0xFFFFFFFFFFFFFFFFFFFFFFFFFFFFFFFFFFFFFFFF AND PUSH32 0x78C3B417DADF69374A59793B829C52001247130433427049317BDE56607B1B7 PUSH1 0x40 MLOAD PUSH1 0x40 MLOAD DUP1 SWAP2 SUB SWAP1 LOG3 POP POP JUMP JUMPDEST PUSH1 0x1 PUSH0 SWAP1 SLOAD SWAP1 PUSH2 0x100 EXP SWAP1 DIV PUSH20 0xFFFFFFFFFFFFFFFFFFFFFFFFFFFFFFFFFFFFFFFF AND DUP2 JUMP JUMPDEST PUSH0 DUP1 PUSH0 SWAP1 SLOAD SWAP1 PUSH2 0x100 EXP SWAP1 DIV PUSH20 0xFFFFFFFFFFFFFFFFFFFFFFFFFFFFFFFFFFFFFFFF AND SWAP1 POP SWAP1 JUMP JUMPDEST PUSH2 0x7D3 PUSH2 0x84F JUMP JUMPDEST PUSH0 PUSH20 0xFFFFFFFFFFFFFFFFFFFFFFFFFFFFFFFFFFFFFFFF AND DUP2 PUSH20 0xFFFFFFFFFFFFFFFFFFFFFFFFFFFFFFFFFFFFFFFF AND SUB PUSH2 0x843 JUMPI PUSH0 PUSH1 0x40 MLOAD PUSH32 0x1E4FBDF700000000000000000000000000000000000000000000000000000000 DUP2 MSTORE PUSH1 0x4 ADD PUSH2 0x83A SWAP2 SWAP1 PUSH2 0xC23 JUMP JUMPDEST PUSH1 0x40 MLOAD DUP1 SWAP2 SUB SWAP1 REVERT JUMPDEST PUSH2 0x84C DUP2 PUSH2 0x8D6 JUMP JUMPDEST POP JUMP JUMPDEST PUSH2 0x857 PUSH2 0x997 JUMP JUMPDEST PUSH20 0xFFFFFFFFFFFFFFFFFFFFFFFFFFFFFFFFFFFFFFFF AND PUSH2 0x875 PUSH2 0x7A4 JUMP JUMPDEST PUSH20 0xFFFFFFFFFFFFFFFFFFFFFFFFFFFFFFFFFFFFFFFF AND EQ PUSH2 0x8D4 JUMPI PUSH2 0x898 PUSH2 0x997 JUMP JUMPDEST PUSH1 0x40 MLOAD PUSH32 0x118CDAA700000000000000000000000000000000000000000000000000000000 DUP2 MSTORE PUSH1 0x4 ADD PUSH2 0x8CB SWAP2 SWAP1 PUSH2 0xC23 JUMP JUMPDEST PUSH1 0x40 MLOAD DUP1 SWAP2 SUB SWAP1 REVERT JUMPDEST JUMP JUMPDEST PUSH0 DUP1 PUSH0 SWAP1 SLOAD SWAP1 PUSH2 0x100 EXP SWAP1 DIV PUSH20 0xFFFFFFFFFFFFFFFFFFFFFFFFFFFFFFFFFFFFFFFF AND SWAP1 POP DUP2 PUSH0 DUP1 PUSH2 0x100 EXP DUP2 SLOAD DUP2 PUSH20 0xFFFFFFFFFFFFFFFFFFFFFFFFFFFFFFFFFFFFFFFF MUL NOT AND SWAP1 DUP4 PUSH20 0xFFFFFFFFFFFFFFFFFFFFFFFFFFFFFFFFFFFFFFFF AND MUL OR SWAP1 SSTORE POP DUP2 PUSH20 0xFFFFFFFFFFFFFFFFFFFFFFFFFFFFFFFFFFFFFFFF AND DUP2 PUSH20 0xFFFFFFFFFFFFFFFFFFFFFFFFFFFFFFFFFFFFFFFF AND PUSH32 0x8BE0079C531659141344CD1FD0A4F28419497F9722A3DAAFE3B4186F6B6457E0 PUSH1 0x40 MLOAD PUSH1 0x40 MLOAD DUP1 SWAP2 SUB SWAP1 LOG3 POP POP JUMP JUMPDEST PUSH0 CALLER SWAP1 POP SWAP1 JUMP JUMPDEST PUSH0 DUP1 REVERT JUMPDEST PUSH0 PUSH20 0xFFFFFFFFFFFFFFFFFFFFFFFFFFFFFFFFFFFFFFFF DUP3 AND SWAP1 POP SWAP2 SWAP1 POP JUMP JUMPDEST PUSH0 PUSH2 0x9CB DUP3 PUSH2 0x9A2 JUMP JUMPDEST SWAP1 POP SWAP2 SWAP1 POP JUMP JUMPDEST PUSH2 0x9DB DUP2 PUSH2 0x9C1 JUMP JUMPDEST DUP2 EQ PUSH2 0x9E5 JUMPI PUSH0 DUP1 REVERT JUMPDEST POP JUMP JUMPDEST PUSH0 DUP2 CALLDATALOAD SWAP1 POP PUSH2 0x9F6 DUP2 PUSH2 0x9D2 JUMP JUMPDEST SWAP3 SWAP2 POP POP JUMP JUMPDEST PUSH0 PUSH1 0x20 DUP3 DUP5 SUB SLT ISZERO PUSH2 0xA11 JUMPI PUSH2 0xA10 PUSH2 0x99E JUMP JUMPDEST JUMPDEST PUSH0 PUSH2 0xA1E DUP5 DUP3 DUP6 ADD PUSH2 0x9E8 JUMP JUMPDEST SWAP2 POP POP SWAP3 SWAP2 POP POP JUMP JUMPDEST PUSH0 DUP2 SWAP1 POP SWAP2 SWAP1 POP JUMP JUMPDEST PUSH2 0xA39 DUP2 PUSH2 0xA27 JUMP JUMPDEST DUP3 MSTORE POP POP JUMP JUMPDEST PUSH0 PUSH4 0xFFFFFFFF DUP3 AND SWAP1 POP SWAP2 SWAP1 POP JUMP JUMPDEST PUSH2 0xA57 DUP2 PUSH2 0xA3F JUMP JUMPDEST DUP3 MSTORE POP POP JUMP JUMPDEST PUSH0 DUP2 ISZERO ISZERO SWAP1 POP SWAP2 SWAP1 POP JUMP JUMPDEST PUSH2 0xA71 DUP2 PUSH2 0xA5D JUMP JUMPDEST DUP3 MSTORE POP POP JUMP JUMPDEST PUSH0 PUSH8 0xFFFFFFFFFFFFFFFF DUP3 AND SWAP1 POP SWAP2 SWAP1 POP JUMP JUMPDEST PUSH2 0xA93 DUP2 PUSH2 0xA77 JUMP JUMPDEST DUP3 MSTORE POP POP JUMP JUMPDEST PUSH0 PUSH1 0x80 DUP3 ADD SWAP1 POP PUSH2 0xAAC PUSH0 DUP4 ADD DUP8 PUSH2 0xA30 JUMP JUMPDEST PUSH2 0xAB9 PUSH1 0x20 DUP4 ADD DUP7 PUSH2 0xA4E JUMP JUMPDEST PUSH2 0xAC6 PUSH1 0x40 DUP4 ADD DUP6 PUSH2 0xA68 JUMP JUMPDEST PUSH2 0xAD3 PUSH1 0x60 DUP4 ADD DUP5 PUSH2 0xA8A JUMP JUMPDEST SWAP6 SWAP5 POP POP POP POP POP JUMP JUMPDEST PUSH0 PUSH1 0x20 DUP3 ADD SWAP1 POP PUSH2 0xAEF PUSH0 DUP4 ADD DUP5 PUSH2 0xA68 JUMP JUMPDEST SWAP3 SWAP2 POP POP JUMP JUMPDEST PUSH2 0xAFE DUP2 PUSH2 0xA27 JUMP JUMPDEST DUP2 EQ PUSH2 0xB08 JUMPI PUSH0 DUP1 REVERT JUMPDEST POP JUMP JUMPDEST PUSH0 DUP2 CALLDATALOAD SWAP1 POP PUSH2 0xB19 DUP2 PUSH2 0xAF5 JUMP JUMPDEST SWAP3 SWAP2 POP POP JUMP JUMPDEST PUSH2 0xB28 DUP2 PUSH2 0xA3F JUMP JUMPDEST DUP2 EQ PUSH2 0xB32 JUMPI PUSH0 DUP1 REVERT JUMPDEST POP JUMP JUMPDEST PUSH0 DUP2 CALLDATALOAD SWAP1 POP PUSH2 0xB43 DUP2 PUSH2 0xB1F JUMP JUMPDEST SWAP3 SWAP2 POP POP JUMP JUMPDEST PUSH2 0xB52 DUP2 PUSH2 0xA5D JUMP JUMPDEST DUP2 EQ PUSH2 0xB5C JUMPI PUSH0 DUP1 REVERT JUMPDEST POP JUMP JUMPDEST PUSH0 DUP2 CALLDATALOAD SWAP1 POP PUSH2 0xB6D DUP2 PUSH2 0xB49 JUMP JUMPDEST SWAP3 SWAP2 POP POP JUMP JUMPDEST PUSH2 0xB7C DUP2 PUSH2 0xA77 JUMP JUMPDEST DUP2 EQ PUSH2 0xB86 JUMPI PUSH0 DUP1 REVERT JUMPDEST POP JUMP JUMPDEST PUSH0 DUP2 CALLDATALOAD SWAP1 POP PUSH2 0xB97 DUP2 PUSH2 0xB73 JUMP JUMPDEST SWAP3 SWAP2 POP POP JUMP JUMPDEST PUSH0 DUP1 PUSH0 DUP1 PUSH0 PUSH1 0xA0 DUP7 DUP9 SUB SLT ISZERO PUSH2 0xBB6 JUMPI PUSH2 0xBB5 PUSH2 0x99E JUMP JUMPDEST JUMPDEST PUSH0 PUSH2 0xBC3 DUP9 DUP3 DUP10 ADD PUSH2 0x9E8 JUMP JUMPDEST SWAP6 POP POP PUSH1 0x20 PUSH2 0xBD4 DUP9 DUP3 DUP10 ADD PUSH2 0xB0B JUMP JUMPDEST SWAP5 POP POP PUSH1 0x40 PUSH2 0xBE5 DUP9 DUP3 DUP10 ADD PUSH2 0xB35 JUMP JUMPDEST SWAP4 POP POP PUSH1 0x60 PUSH2 0xBF6 DUP9 DUP3 DUP10 ADD PUSH2 0xB5F JUMP JUMPDEST SWAP3 POP POP PUSH1 0x80 PUSH2 0xC07 DUP9 DUP3 DUP10 ADD PUSH2 0xB89 JUMP JUMPDEST SWAP2 POP POP SWAP3 SWAP6 POP SWAP3 SWAP6 SWAP1 SWAP4 POP JUMP JUMPDEST PUSH2 0xC1D DUP2 PUSH2 0x9C1 JUMP JUMPDEST DUP3 MSTORE POP POP JUMP JUMPDEST PUSH0 PUSH1 0x20 DUP3 ADD SWAP1 POP PUSH2 0xC36 PUSH0 DUP4 ADD DUP5 PUSH2 0xC14 JUMP JUMPDEST SWAP3 SWAP2 POP POP JUMP JUMPDEST PUSH0 DUP3 DUP3 MSTORE PUSH1 0x20 DUP3 ADD SWAP1 POP SWAP3 SWAP2 POP POP JUMP JUMPDEST PUSH32 0x4F7261636C65436F6E73756D65723A206E6F74206F7261636C65000000000000 PUSH0 DUP3 ADD MSTORE POP JUMP JUMPDEST PUSH0 PUSH2 0xC80 PUSH1 0x1A DUP4 PUSH2 0xC3C JUMP JUMPDEST SWAP2 POP PUSH2 0xC8B DUP3 PUSH2 0xC4C JUMP JUMPDEST PUSH1 0x20 DUP3 ADD SWAP1 POP SWAP2 SWAP1 POP JUMP JUMPDEST PUSH0 PUSH1 0x20 DUP3 ADD SWAP1 POP DUP2 DUP2 SUB PUSH0 DUP4 ADD MSTORE PUSH2 0xCAD DUP2 PUSH2 0xC74 JUMP JUMPDEST SWAP1 POP SWAP2 SWAP1 POP JUMP JUMPDEST PUSH32 0x4F7261636C65436F6E73756D65723A2077616C6C65743D300000000000000000 PUSH0 DUP3 ADD MSTORE POP JUMP JUMPDEST PUSH0 PUSH2 0xCE8 PUSH1 0x18 DUP4 PUSH2 0xC3C JUMP JUMPDEST SWAP2 POP PUSH2 0xCF3 DUP3 PUSH2 0xCB4 JUMP JUMPDEST PUSH1 0x20 DUP3 ADD SWAP1 POP SWAP2 SWAP1 POP JUMP JUMPDEST PUSH0 PUSH1 0x20 DUP3 ADD SWAP1 POP DUP2 DUP2 SUB PUSH0 DUP4 ADD MSTORE PUSH2 0xD15 DUP2 PUSH2 0xCDC JUMP JUMPDEST SWAP1 POP SWAP2 SWAP1 POP JUMP JUMPDEST PUSH32 0x4F7261636C65436F6E73756D65723A206964486173683D300000000000000000 PUSH0 DUP3 ADD MSTORE POP JUMP JUMPDEST PUSH0 PUSH2 0xD50 PUSH1 0x18 DUP4 PUSH2 0xC3C JUMP JUMPDEST SWAP2 POP PUSH2 0xD5B DUP3 PUSH2 0xD1C JUMP JUMPDEST PUSH1 0x20 DUP3 ADD SWAP1 POP SWAP2 SWAP1 POP JUMP JUMPDEST PUSH0 PUSH1 0x20 DUP3 ADD SWAP1 POP DUP2 DUP2 SUB PUSH0 DUP4 ADD MSTORE PUSH2 0xD7D DUP2 PUSH2 0xD44 JUMP JUMPDEST SWAP1 POP SWAP2 SWAP1 POP JUMP JUMPDEST PUSH32 0x4F7261636C65436F6E73756D65723A206F7261636C653D300000000000000000 PUSH0 DUP3 ADD MSTORE POP JUMP JUMPDEST PUSH0 PUSH2 0xDB8 PUSH1 0x18 DUP4 PUSH2 0xC3C JUMP JUMPDEST SWAP2 POP PUSH2 0xDC3 DUP3 PUSH2 0xD84 JUMP JUMPDEST PUSH1 0x20 DUP3 ADD SWAP1 POP SWAP2 SWAP1 POP JUMP JUMPDEST PUSH0 PUSH1 0x20 DUP3 ADD SWAP1 POP DUP2 DUP2 SUB PUSH0 DUP4 ADD MSTORE PUSH2 0xDE5 DUP2 PUSH2 0xDAC JUMP JUMPDEST SWAP1 POP SWAP2 SWAP1 POP JUMP INVALID LOG2 PUSH5 0x6970667358 0x22 SLT KECCAK256 SWAP14 0xB8 0xF9 SWAP13 DUP4 DUP9 0x4D JUMPI 0xA7 DUP13 SHL PUSH11 0x8735DAF3CC496791C73FB0 OR 0xB5 DUP15 EXTCODECOPY MSTORE 0xD5 PUSH29 0xA0BB64736F6C6343000814003300000000000000000000000000000000 "
				},
				"gasEstimates": {
					"creation": {
						"codeDepositCost": "723600",
						"executionCost": "infinite",
						"totalCost": "infinite"
					},
					"external": {
						"getIdentity(address)": "9893",
						"isEligible(address)": "9697",
						"oracle()": "2530",
						"owner()": "2559",
						"renounceOwnership()": "infinite",
						"setOracle(address)": "infinite",
						"transferOwnership(address)": "infinite",
						"updateIdentity(address,bytes32,uint32,bool,uint64)": "infinite"
					}
				},
				"methodIdentifiers": {
					"getIdentity(address)": "2fea7b81",
					"isEligible(address)": "66e305fd",
					"oracle()": "7dc0d1d0",
					"owner()": "8da5cb5b",
					"renounceOwnership()": "715018a6",
					"setOracle(address)": "7adbf973",
					"transferOwnership(address)": "f2fde38b",
					"updateIdentity(address,bytes32,uint32,bool,uint64)": "7966e915"
				}
			},
			"storageLayout": {
				"storage": [
					{
						"astId": 8,
						"contract": "OracleConsumer.sol:OracleConsumer",
						"label": "_owner",
						"offset": 0,
						"slot": "0",
						"type": "t_address"
					},
					{
						"astId": 195,
						"contract": "OracleConsumer.sol:OracleConsumer",
						"label": "oracle",
						"offset": 0,
						"slot": "1",
						"type": "t_address"
					},
					{
						"astId": 200,
						"contract": "OracleConsumer.sol:OracleConsumer",
						"label": "_identities",
						"offset": 0,
						"slot": "2",
						"type": "t_mapping(t_address,t_struct(OracleIdentity)192_storage)"
					}
				],
				"types": {
					"t_address": {
						"encoding": "inplace",
						"label": "address",
						"numberOfBytes": "20"
					},
					"t_bool": {
						"encoding": "inplace",
						"label": "bool",
						"numberOfBytes": "1"
					},
					"t_bytes32": {
						"encoding": "inplace",
						"label": "bytes32",
						"numberOfBytes": "32"
					},
					"t_mapping(t_address,t_struct(OracleIdentity)192_storage)": {
						"encoding": "mapping",
						"key": "t_address",
						"label": "mapping(address => struct OracleConsumer.OracleIdentity)",
						"numberOfBytes": "32",
						"value": "t_struct(OracleIdentity)192_storage"
					},
					"t_struct(OracleIdentity)192_storage": {
						"encoding": "inplace",
						"label": "struct OracleConsumer.OracleIdentity",
						"members": [
							{
								"astId": 185,
								"contract": "OracleConsumer.sol:OracleConsumer",
								"label": "identityHash",
								"offset": 0,
								"slot": "0",
								"type": "t_bytes32"
							},
							{
								"astId": 187,
								"contract": "OracleConsumer.sol:OracleConsumer",
								"label": "maxTickets",
								"offset": 0,
								"slot": "1",
								"type": "t_uint32"
							},
							{
								"astId": 189,
								"contract": "OracleConsumer.sol:OracleConsumer",
								"label": "blocked",
								"offset": 4,
								"slot": "1",
								"type": "t_bool"
							},
							{
								"astId": 191,
								"contract": "OracleConsumer.sol:OracleConsumer",
								"label": "expiry",
								"offset": 5,
								"slot": "1",
								"type": "t_uint64"
							}
						],
						"numberOfBytes": "64"
					},
					"t_uint32": {
						"encoding": "inplace",
						"label": "uint32",
						"numberOfBytes": "4"
					},
					"t_uint64": {
						"encoding": "inplace",
						"label": "uint64",
						"numberOfBytes": "8"
					}
				}
			},
			"userdoc": {
				"kind": "user",
				"methods": {
					"getIdentity(address)": {
						"notice": "read attestation for Marketplace checks"
					},
					"isEligible(address)": {
						"notice": "convenience: true if wallet is currently eligible to purchase"
					},
					"oracle()": {
						"notice": "trusted oracle address that can update KYC attestations"
					},
					"setOracle(address)": {
						"notice": "owner can rotate oracle key if needed"
					},
					"updateIdentity(address,bytes32,uint32,bool,uint64)": {
						"notice": "oracle posts KYC attestation result for a wallet"
					}
				},
				"notice": "OracleConsumer Stores oracle-fed KYC attestations:   wallet -> { identityHash, maxTickets, blocked, expiry } IMPORTANT: - Do NOT store personal info on-chain. - identityHash should be a salted hash computed off-chain. Typical workflow: 1) User completes KYC off-chain. 2) Backend/oracle decides: verified + limit + blocked flag. 3) Oracle writes the result here via updateIdentity(). 4) Marketplace checks this contract before selling tickets.",
				"version": 1
			}
		}
	}
}